:100000000C9446000C9469050C949C050C94CF0547
:100010000C9402060C9435060C9468060C949B060E
:100020000C94CE060C9401070C9434070C946707CB
:100030000C949A070C94CD070C9400080C94330888
:100040000C9466080C9499080C94CC080C94FF0846
:100050000C9432090C9465090C9498090C94CB0902
:100060000C94FE090C94310A0C94640A0C94970ABF
:100070000C94CA0A0C94FD0A0C94300B0C94650085
:100080000C9465000C9465000C94650011241FBE4F
:10009000CFEFD0E4DEBFCDBF11E0A0E0B1E0E4EDF2
:1000A000FBE100E00BBF02C007900D92AA30B10740
:1000B000D9F721E0AAE0B1E001C01D92A63AB2074B
:1000C000E1F70E94C60D0C94E80D0C940000CF934C
:1000D000DF93CDB7DEB785E291E00E94EF0B0E947F
:1000E000600B0000DF91CF910895EF92FF920F9384
:1000F0001F93CF93DF93CDB7DEB72C970FB6F8944D
:10010000DEBF0FBECDBF9A8389834B835C836D8333
:100110007E8338872F831A870987FC86EB8689813F
:100120009A8121E030E0FC013183208389819A812A
:100130002F813885FC013383228329813A818B8189
:100140009C81AD81BE81F90184839583A683B783A9
:1001500029813A818B819C81AD81BE81F9018087A3
:100160009187A287B38789819A8129853A85FC0185
:100170003587248789819A812B853C85FC013787C7
:10018000268720910A0130910B0189819A81FC0117
:10019000318B208B89819A8190930B0180930A0186
:1001A00000002C960FB6F894DEBF0FBECDBFDF91D6
:1001B000CF911F910F91FF90EF900895CF93DF9310
:1001C00000D0CDB7DEB71A82198229C089819A8101
:1001D000880F991F9C01220F331F220F331F220FFC
:1001E000331F820F931F8A5E9E4FFC018081918195
:1001F000892B81F489819A81880F991F9C01220F94
:10020000331F220F331F220F331F820F931F8A5E6B
:100210009E4F0BC089819A8101969A838983898137
:100220009A8108979CF280E090E00F900F90DF9108
:10023000CF910895CF93DF93CDB7DEB780910A01B8
:1002400090910B01DF91CF910895CF93DF9300D070
:10025000CDB7DEB780910A0190910B019A83898313
:100260003CC089819A81FC0180819181019771F55F
:1002700089819A81FC0180859185A285B385892B2E
:100280008A2B8B2B19F189819A81FC0180859185BC
:10029000A285B3850197A109B10929813A81F901A4
:1002A00080879187A287B38789819A81FC018085A5
:1002B0009185A285B385892B8A2B8B2B39F4898173
:1002C0009A8122E030E0FC013183208389819A8188
:1002D000FC01808991899A83898389819A81892BFC
:1002E00009F0BFCF00000F900F90DF91CF910895DC
:1002F000CF93DF9300D000D0CDB7DEB780910A0155
:1003000090910B019A8389831C821B824CC0898146
:100310009A81FC01808191810297D1F589819A812E
:10032000FC0184859585892B99F189819A81FC014D
:100330002485358589819A81FC0186859785F90117
:10034000099589819A81FC0182819381892B59F4D5
:1003500089819A81FC011182108289819A81FC0134
:100360001586148615C089819A81FC018481958146
:10037000A681B78129813A81F90180879187A28777
:10038000B38789819A8121E030E0FC0131832083A9
:1003900089819A819C838B8389819A81FC018089E0
:1003A00091899A83898389819A81892B09F0AFCFBA
:1003B00000000F900F900F900F90DF91CF91089554
:1003C000CF93DF9300D000D0CDB7DEB79C838B8373
:1003D0002B813C81C901880F991F880F991F820FBB
:1003E000931F80509F4F9A83898384E690E024E690
:1003F00030E0F9012081622F29813A81F9012481BD
:10040000422F50E021E030E002C0220F331F4A9516
:10041000E2F720952623FC01208300000F900F9027
:100420000F900F90DF91CF910895CF93DF9300D07D
:1004300000D0CDB7DEB79C838B832B813C81C90173
:10044000880F991F880F991F820F931F80509F4F0D
:100450009A83898389819A81FC018381882F90E026
:10046000FC01108200000F900F900F900F90DF9111
:10047000CF910895CF93DF9300D000D000D0CDB7B7
:10048000DEB79C838B837E836D832B813C81C90186
:10049000880F991F880F991F820F931F80509F4FBD
:1004A0009A8389838D819E818130910571F181309C
:1004B000910530F08230910551F1039751F12AC036
:1004C00089819A81FC018081882F90E09C0189813B
:1004D0009A81FC018081882F90E0FC0180818C7FD3
:1004E000F901808389819A81FC018181882F90E0C4
:1004F0009C0189819A81FC018181882F90E0FC0117
:100500008081877FF901808305C0000003C000005F
:1005100001C00000000026960FB6F894DEBF0FBEA3
:10052000CDBFDF91CF910895CF93DF9300D000D05E
:1005300000D0CDB7DEB79C838B837E836D832B8108
:100540003C81C901880F991F880F991F820F931F43
:1005500080509F4F9A8389838D819E81892B91F44E
:1005600089819A81FC018281882F90E09C01898198
:100570009A81FC018281882F90E0FC01808181605A
:10058000F9018083000026960FB6F894DEBF0FBEF7
:10059000CDBFDF91CF910895CF93DF9300D000D0EE
:1005A00000D0CDB7DEB79C838B837E836D832B8198
:1005B0003C81C901880F991F880F991F820F931FD3
:1005C00080509F4F9A83898389819A81FC01818120
:1005D000882F90E09C0189819A81FC018181882F7C
:1005E00090E0FC018081887FF90180838D819E816C
:1005F00080349105C9F18134910530F48130910541
:1006000069F00897F1F069C08115F1E09F0709F4DE
:100610003EC08115944009F44DC05FC089819A8124
:10062000FC018181882F90E09C0189819A81FC01E5
:100630008181882F90E0FC0180818160F9018083B5
:100640004CC089819A81FC018181882F90E09C01B6
:1006500089819A81FC018181882F90E0FC01808151
:100660008260F901808339C089819A81FC0181818E
:10067000882F90E09C0189819A81FC018181882FDB
:1006800090E0FC0180818360F901808326C089812C
:100690009A81FC018181882F90E09C0189819A8157
:1006A000FC018181882F90E0FC0180818460F90148
:1006B000808313C089819A81FC018181882F90E019
:1006C0009C0189819A81FC018181882F90E0FC0145
:1006D00080818560F90180830000000026960FB6B6
:1006E000F894DEBF0FBECDBFDF91CF910895CF93B9
:1006F000DF9300D000D0CDB7DEB789837B836A83D8
:100700004C8300000F900F900F900F90DF91CF91CE
:100710000895CF93DF93CDB7DEB728970FB6F8943F
:10072000DEBF0FBECDBF8D837F836E8348878D81F3
:10073000882F90E09A8389838D81882F90E001969D
:100740009C838B838E819F818230910509F46AC0DE
:100750008330910528F4009759F00197B1F1A5C0B5
:100760008330910509F474C0049709F49DC09DC0BD
:1007700089819A81FC018081482F8885282F30E06B
:1007800081E090E002C0880F991F2A95E2F78095DA
:100790008423282F89819A81FC0120838B819C816D
:1007A000FC018081482F8885282F30E081E090E08F
:1007B00002C0880F991F2A95E2F780958423282F7D
:1007C0008B819C81FC01208370C089819A81FC010E
:1007D0008081482F8885282F30E081E090E002C09A
:1007E000880F991F2A95E2F780958423282F898105
:1007F0009A81FC0120838B819C81FC018081482FA0
:100800008885282F30E081E090E002C0880F991F92
:100810002A95E2F780958423282F8B819C81FC0107
:10082000208343C089819A81FC018081482F88857B
:10083000282F30E081E090E002C0880F991F2A95B0
:10084000E2F7842B282F89819A81FC0120832DC017
:1008500089819A81FC018081482F8885282F30E08A
:1008600081E090E002C0880F991F2A95E2F78095F9
:100870008423282F89819A81FC0120838B819C818C
:10088000FC018081482F8885282F30E081E090E0AE
:1008900002C0880F991F2A95E2F7842B282F8B819D
:1008A0009C81FC01208301C00000000028960FB647
:1008B000F894DEBF0FBECDBFDF91CF910895CF93E7
:1008C000DF9300D0CDB7DEB789836A838981882F13
:1008D00090E09C018981882F90E0FC018081682F45
:1008E0008A81482F50E081E090E002C0880F991F74
:1008F0004A95E2F7862BF901808300000F900F9054
:10090000DF91CF910895CF93DF9300D0CDB7DEB7BD
:1009100089836A838981882F90E09C018981882F4F
:1009200090E0FC018081682F8A81482F50E081E0AF
:1009300090E002C0880F991F4A95E2F780958623C0
:10094000F901808300000F900F90DF91CF910895FF
:10095000CF93DF9300D0CDB7DEB789836A838981D7
:10096000882F90E0FC018081882F90E02A81222F3F
:1009700030E002C0959587952A95E2F78170992716
:1009800021E0892B09F420E0822F0F900F90DF9156
:10099000CF910895CF93DF9300D0CDB7DEB7898391
:1009A0006A838981882F90E09C018981882F90E05B
:1009B000FC018081682F8A81482F50E081E090E01F
:1009C00002C0880F991F4A95E2F78627F9018083B4
:1009D00000000F900F90DF91CF910895CF93DF9398
:1009E0001F92CDB7DEB789838981882F90E0FC0103
:1009F00080810F90DF91CF910895CF93DF9300D046
:100A0000CDB7DEB789836A838981882F90E02A81F8
:100A1000FC01208300000F900F90DF91CF9108958B
:100A2000CF93DF93CDB7DEB700000000DF91CF9109
:100A30000895CF93DF93CDB7DEB70E941005000075
:100A4000DF91CF910895CF93DF93CDB7DEB70E94AA
:100A500010050000DF91CF910895CF93DF93CDB7BC
:100A6000DEB70E9410050000DF91CF910895CF936B
:100A7000DF93CDB7DEB70E9410050000DF91CF9164
:100A80000895CF93DF93CDB7DEB70E941005000025
:100A9000DF91CF910895CF93DF93CDB7DEB70E945A
:100AA00010050000DF91CF910895CF93DF93CDB76C
:100AB000DEB70E9410050000DF91CF910895CF931B
:100AC000DF93CDB7DEB70E9410050000DF91CF9114
:100AD00008951F920F9200905F000F9211240090D2
:100AE0005B000F922F933F934F935F936F937F938E
:100AF0008F939F93AF93BF93EF93FF93CF93DF9326
:100B0000CDB7DEB70E9410050000DF91CF91FF91B5
:100B1000EF91BF91AF919F918F917F916F915F9175
:100B20004F913F912F910F9000925B000F90009298
:100B30005F000F901F9018951F920F9200905F001A
:100B40000F92112400905B000F922F933F934F93CD
:100B50005F936F937F938F939F93AF93BF93EF9325
:100B6000FF93CF93DF93CDB7DEB70E94100500004F
:100B7000DF91CF91FF91EF91BF91AF919F918F91B5
:100B80007F916F915F914F913F912F910F900092C4
:100B90005B000F9000925F000F901F9018951F92BE
:100BA0000F9200905F000F92112400905B000F9253
:100BB0002F933F934F935F936F937F938F939F9365
:100BC000AF93BF93EF93FF93CF93DF93CDB7DEB790
:100BD0000E9410050000DF91CF91FF91EF91BF912E
:100BE000AF919F918F917F916F915F914F913F91C5
:100BF0002F910F9000925B000F9000925F000F907A
:100C00001F9018951F920F9200905F000F92112471
:100C100000905B000F922F933F934F935F936F93DE
:100C20007F938F939F93AF93BF93EF93FF93CF9354
:100C3000DF93CDB7DEB70E9410050000DF91CF91A2
:100C4000FF91EF91BF91AF919F918F917F916F91A4
:100C50005F914F913F912F910F9000925B000F9009
:100C600000925F000F901F9018951F920F920090B6
:100C70005F000F92112400905B000F922F933F931F
:100C80004F935F936F937F938F939F93AF93BF9394
:100C9000EF93FF93CF93DF93CDB7DEB70E9410059C
:100CA0000000DF91CF91FF91EF91BF91AF919F91A4
:100CB0008F917F916F915F914F913F912F910F9005
:100CC00000925B000F9000925F000F901F901895AC
:100CD0001F920F9200905F000F92112400905B0012
:100CE0000F922F933F934F935F936F937F938F93C5
:100CF0009F93AF93BF93EF93FF93CF93DF93CDB7C2
:100D0000DEB70E9410050000DF91CF91FF91EF91B7
:100D1000BF91AF919F918F917F916F915F914F9113
:100D20003F912F910F9000925B000F9000925F0017
:100D30000F901F9018951F920F9200905F000F92D6
:100D4000112400905B000F922F933F934F935F937A
:100D50006F937F938F939F93AF93BF93EF93FF9383
:100D6000CF93DF93CDB7DEB70E9410050000DF916F
:100D7000CF91FF91EF91BF91AF919F918F917F9113
:100D80006F915F914F913F912F910F9000925B0077
:100D90000F9000925F000F901F9018951F920F9276
:100DA00000905F000F92112400905B000F922F9330
:100DB0003F934F935F936F937F938F939F93AF93E3
:100DC000BF93EF93FF93CF93DF93CDB7DEB70E942E
:100DD00010050000DF91CF91FF91EF91BF91AF918E
:100DE0009F918F917F916F915F914F913F912F9143
:100DF0000F9000925B000F9000925F000F901F9089
:100E000018951F920F9200905F000F92112400908E
:100E10005B000F922F933F934F935F936F937F935A
:100E20008F939F93AF93BF93EF93FF93CF93DF93F2
:100E3000CDB7DEB70E9410050000DF91CF91FF9182
:100E4000EF91BF91AF919F918F917F916F915F9142
:100E50004F913F912F910F9000925B000F90009265
:100E60005F000F901F9018951F920F9200905F00E7
:100E70000F92112400905B000F922F933F934F939A
:100E80005F936F937F938F939F93AF93BF93EF93F2
:100E9000FF93CF93DF93CDB7DEB70E94100500001C
:100EA000DF91CF91FF91EF91BF91AF919F918F9182
:100EB0007F916F915F914F913F912F910F90009291
:100EC0005B000F9000925F000F901F9018951F928B
:100ED0000F9200905F000F92112400905B000F9220
:100EE0002F933F934F935F936F937F938F939F9332
:100EF000AF93BF93EF93FF93CF93DF93CDB7DEB75D
:100F00000E94560B0000DF91CF91FF91EF91BF91AE
:100F1000AF919F918F917F916F915F914F913F9191
:100F20002F910F9000925B000F9000925F000F9046
:100F30001F9018951F920F9200905F000F9211243E
:100F400000905B000F922F933F934F935F936F93AB
:100F50007F938F939F93AF93BF93EF93FF93CF9321
:100F6000DF93CDB7DEB70E9410050000DF91CF916F
:100F7000FF91EF91BF91AF919F918F917F916F9171
:100F80005F914F913F912F910F9000925B000F90D6
:100F900000925F000F901F9018951F920F92009083
:100FA0005F000F92112400905B000F922F933F93EC
:100FB0004F935F936F937F938F939F93AF93BF9361
:100FC000EF93FF93CF93DF93CDB7DEB70E94100569
:100FD0000000DF91CF91FF91EF91BF91AF919F9171
:100FE0008F917F916F915F914F913F912F910F90D2
:100FF00000925B000F9000925F000F901F90189579
:101000001F920F9200905F000F92112400905B00DE
:101010000F922F933F934F935F936F937F938F9391
:101020009F93AF93BF93EF93FF93CF93DF93CDB78E
:10103000DEB70E9410050000DF91CF91FF91EF9184
:10104000BF91AF919F918F917F916F915F914F91E0
:101050003F912F910F9000925B000F9000925F00E4
:101060000F901F9018951F920F9200905F000F92A3
:10107000112400905B000F922F933F934F935F9347
:101080006F937F938F939F93AF93BF93EF93FF9350
:10109000CF93DF93CDB7DEB70E9410050000DF913C
:1010A000CF91FF91EF91BF91AF919F918F917F91E0
:1010B0006F915F914F913F912F910F9000925B0044
:1010C0000F9000925F000F901F9018951F920F9243
:1010D00000905F000F92112400905B000F922F93FD
:1010E0003F934F935F936F937F938F939F93AF93B0
:1010F000BF93EF93FF93CF93DF93CDB7DEB70E94FB
:1011000010050000DF91CF91FF91EF91BF91AF915A
:101110009F918F917F916F915F914F913F912F910F
:101120000F9000925B000F9000925F000F901F9055
:1011300018951F920F9200905F000F92112400905B
:101140005B000F922F933F934F935F936F937F9327
:101150008F939F93AF93BF93EF93FF93CF93DF93BF
:10116000CDB7DEB70E9410050000DF91CF91FF914F
:10117000EF91BF91AF919F918F917F916F915F910F
:101180004F913F912F910F9000925B000F90009232
:101190005F000F901F9018951F920F9200905F00B4
:1011A0000F92112400905B000F922F933F934F9367
:1011B0005F936F937F938F939F93AF93BF93EF93BF
:1011C000FF93CF93DF93CDB7DEB70E944C0B0000A7
:1011D000DF91CF91FF91EF91BF91AF919F918F914F
:1011E0007F916F915F914F913F912F910F9000925E
:1011F0005B000F9000925F000F901F9018951F9258
:101200000F9200905F000F92112400905B000F92EC
:101210002F933F934F935F936F937F938F939F93FE
:10122000AF93BF93EF93FF93CF93DF93CDB7DEB729
:101230000E9410050000DF91CF91FF91EF91BF91C7
:10124000AF919F918F917F916F915F914F913F915E
:101250002F910F9000925B000F9000925F000F9013
:101260001F9018951F920F9200905F000F9211240B
:1012700000905B000F922F933F934F935F936F9378
:101280007F938F939F93AF93BF93EF93FF93CF93EE
:10129000DF93CDB7DEB70E942D050000DF91CF911F
:1012A000FF91EF91BF91AF919F918F917F916F913E
:1012B0005F914F913F912F910F9000925B000F90A3
:1012C00000925F000F901F9018951F920F92009050
:1012D0005F000F92112400905B000F922F933F93B9
:1012E0004F935F936F937F938F939F93AF93BF932E
:1012F000EF93FF93CF93DF93CDB7DEB70E9437050F
:101300000000DF91CF91FF91EF91BF91AF919F913D
:101310008F917F916F915F914F913F912F910F909E
:1013200000925B000F9000925F000F901F90189545
:101330001F920F9200905F000F92112400905B00AB
:101340000F922F933F934F935F936F937F938F935E
:101350009F93AF93BF93EF93FF93CF93DF93CDB75B
:10136000DEB70E9441050000DF91CF91FF91EF9120
:10137000BF91AF919F918F917F916F915F914F91AD
:101380003F912F910F9000925B000F9000925F00B1
:101390000F901F9018951F920F9200905F000F9270
:1013A000112400905B000F922F933F934F935F9314
:1013B0006F937F938F939F93AF93BF93EF93FF931D
:1013C000CF93DF93CDB7DEB70E9410050000DF9109
:1013D000CF91FF91EF91BF91AF919F918F917F91AD
:1013E0006F915F914F913F912F910F9000925B0011
:1013F0000F9000925F000F901F9018951F920F9210
:1014000000905F000F92112400905B000F922F93C9
:101410003F934F935F936F937F938F939F93AF937C
:10142000BF93EF93FF93CF93DF93CDB7DEB70E94C7
:1014300010050000DF91CF91FF91EF91BF91AF9127
:101440009F918F917F916F915F914F913F912F91DC
:101450000F9000925B000F9000925F000F901F9022
:1014600018951F920F9200905F000F921124009028
:101470005B000F922F933F934F935F936F937F93F4
:101480008F939F93AF93BF93EF93FF93CF93DF938C
:10149000CDB7DEB70E9410050000DF91CF91FF911C
:1014A000EF91BF91AF919F918F917F916F915F91DC
:1014B0004F913F912F910F9000925B000F900092FF
:1014C0005F000F901F9018951F920F9200905F0081
:1014D0000F92112400905B000F922F933F934F9334
:1014E0005F936F937F938F939F93AF93BF93EF938C
:1014F000FF93CF93DF93CDB7DEB70E9410050000B6
:10150000DF91CF91FF91EF91BF91AF919F918F911B
:101510007F916F915F914F913F912F910F9000922A
:101520005B000F9000925F000F901F9018951F9224
:101530000F9200905F000F92112400905B000F92B9
:101540002F933F934F935F936F937F938F939F93CB
:10155000AF93BF93EF93FF93CF93DF93CDB7DEB7F6
:101560000E9410050000DF91CF91FF91EF91BF9194
:10157000AF919F918F917F916F915F914F913F912B
:101580002F910F9000925B000F9000925F000F90E0
:101590001F9018951F920F9200905F000F921124D8
:1015A00000905B000F922F933F934F935F936F9345
:1015B0007F938F939F93AF93BF93EF93FF93CF93BB
:1015C000DF93CDB7DEB70E944B050000DF91CF91CE
:1015D000FF91EF91BF91AF919F918F917F916F910B
:1015E0005F914F913F912F910F9000925B000F9070
:1015F00000925F000F901F9018951F920F9200901D
:101600005F000F92112400905B000F922F933F9385
:101610004F935F936F937F938F939F93AF93BF93FA
:10162000EF93FF93CF93DF93CDB7DEB70E945505BD
:101630000000DF91CF91FF91EF91BF91AF919F910A
:101640008F917F916F915F914F913F912F910F906B
:1016500000925B000F9000925F000F901F90189512
:10166000CF93DF93CDB7DEB70E945F050000DF9117
:10167000CF910895CF93DF93CDB7DEB77894000074
:10168000DF91CF910895CF93DF93CDB7DEB7F89474
:101690000000DF91CF910895CF93DF93CDB7DEB7F0
:1016A0000E94020C0000DF91CF910895CF93DF9349
:1016B000CDB7DEB70E94020C0000DF91CF910895F4
:1016C000CF93DF9300D000D000D0CDB7DEB71A8221
:1016D00019821C821B8280E490E09E838D83898125
:1016E0009A810E94E00189819A810E9415022B81D2
:1016F0003C8189819A81B9010E943A022B813C8107
:1017000089819A81B9010E9494022D813E8189814B
:101710009A81B9010E94CC020E943A0B00002696E1
:101720000FB6F894DEBF0FBECDBFDF91CF91089505
:10173000AF92BF92CF92DF92EF92FF920F931F93DF
:10174000CF93DF93CDB7DEB728970FB6F894DEBFFF
:101750000FBECDBF0E94430B80910C018983809105
:101760000D018A8380910E018B8380910F018C8300
:10177000809110018D83809111018E8380911201DF
:101780008F838091130188870E943A0B29813A81C7
:101790004B815C816D817E818F819885A22EB32ED5
:1017A000C42ED52EE62EF72E082F192F2A2D3B2DCD
:1017B0004C2D5D2D6E2D7F2D802F912F28960FB6ED
:1017C000F894DEBF0FBECDBFDF91CF911F910F9177
:1017D000FF90EF90DF90CF90BF90AF900895CF93A0
:1017E000DF9300D0CDB7DEB79A83898389819A8150
:1017F000909315018093140100000F900F90DF91DA
:10180000CF910895AF92BF92CF92DF92EF92FF9265
:101810000F931F93CF93DF93CDB7DEB7A0900C014A
:10182000B0900D01C0900E01D0900F01E09010011A
:10183000F090110100911201109113012A2D3B2DFE
:101840004C2D5D2D6E2D7F2D802F912FA1E00E94BC
:10185000D30DA22EB32EC42ED52EE62EF72E082F92
:10186000192FA0920C01B0920D01C0920E01D092DE
:101870000F01E0921001F0921101009312011093F8
:1018800013018091140190911501892B31F0809101
:10189000140190911501FC0109950000DF91CF9191
:1018A0001F910F91FF90EF90DF90CF90BF90AF907E
:1018B0000895AF92BF92CF92DF92EF92FF920F9373
:1018C0001F93CF93DF93CDB7DEB760970FB6F89431
:1018D000DEBF0FBECDBF42E062E070E082E20E9458
:1018E000890319821A821B821C821D821E821F821A
:1018F000188619861A861B861C861D861E861F86DC
:10190000188A0E94980BA22EB32EC42ED52EE62E36
:10191000F72E082F192F2A2D3B2D4C2D5D2D6E2DC6
:101920007F2D802F912FA980BA80CB80DC80ED8025
:10193000FE800F8118850E94DF0DA22EB32EC42ECB
:10194000D52EE62EF72E082F192F2A2D3B2D4C2DA4
:101950005D2D6E2D7F2D802F912F273E3340410529
:101960005105610571058105910559F250F262E05A
:1019700082E20E94CA040E94980BA22EB32EC42EAB
:10198000D52EE62EF72E082F192FA982BA82CB82E8
:10199000DC82ED82FE820F83188729853A854B858C
:1019A0005C856D857E858F859889A1E00E94D30D29
:1019B000A22EB32EC42ED52EE62EF72E082F192FC9
:1019C000A986BA86CB86DC86ED86FE860F87188BC5
:1019D00098CFAF92BF92CF92DF92EF92FF920F9388
:1019E0001F93CF93DF93CDB7DEB72A970FB6F89446
:1019F000DEBF0FBECDBF9A8789870E94980BA22EAB
:101A0000B32EC42ED52EE62EF72E082F192FA9821D
:101A1000BA82CB82DC82ED82FE820F8318870000BF
:101A20002A960FB6F894DEBF0FBECDBFDF91CF91DF
:101A30001F910F91FF90EF90DF90CF90BF90AF90EC
:101A40000895AF92BF92CF92DF92EF92FF920F93E1
:101A50001F93CF93DF93CDB7DEB72A970FB6F894D5
:101A6000DEBF0FBECDBF9A8789870E94980BA22E3A
:101A7000B32EC42ED52EE62EF72E082F192FA982AD
:101A8000BA82CB82DC82ED82FE820F83188700004F
:101A90002A960FB6F894DEBF0FBECDBFDF91CF916F
:101AA0001F910F91FF90EF90DF90CF90BF90AF907C
:101AB0000895AF92BF92CF92DF92EF92FF920F9371
:101AC0001F93CF93DF93CDB7DEB72A970FB6F89465
:101AD000DEBF0FBECDBF9A8789870E94980BA22ECA
:101AE000B32EC42ED52EE62EF72E082F192FA9823D
:101AF000BA82CB82DC82ED82FE820F8318870000DF
:101B00002A960FB6F894DEBF0FBECDBFDF91CF91FE
:101B10001F910F91FF90EF90DF90CF90BF90AF900B
:101B20000895EF92FF920F931F93CF93DF93CDB75A
:101B3000DEB70E94DE00E12CF12C09EE1CE021E072
:101B400030E048EB5BE060E070E00E9475000E94CE
:101B5000DE00E12CF12C01E21DE021E030E040ED5F
:101B600057E060E070E00E9475000E94DE00E12C0A
:101B7000F12C09E51DE021E030E048EE53E060E0A3
:101B800070E00E9475000E947801FDCFCF93DF9333
:101B9000CDB7DEB70E94600B0E94590C80E090E048
:101BA000DF91CF9108950024A7FD00942A0F301DE6
:101BB000401D501D601D701D801D901D08952A1927
:101BC0003B094C095D096E097F09800B910B089553
:041BD000F894FFCFB7
:0A1BD40044456E4605B0B170B2063C
:00000001FF
