:100000000C9446000C940A050C9439050C94680570
:100010000C9497050C94C6050C94F5050C942406D5
:100020000C9453060C9482060C94B1060C94E006D2
:100030000C940F070C943E070C946D070C949C07CE
:100040000C94CB070C94FA070C9429080C945808CC
:100050000C9487080C94B6080C94E5080C941409C9
:100060000C9443090C9472090C94A1090C94D009C6
:100070000C94FF090C942E0A0C945D0A0C946500F4
:100080000C9465000C9465000C94650011241FBE4F
:10009000CFEFD0E4DEBFCDBF11E0A0E0B1E0E6EFEE
:1000A000FFE100E00BBF02C007900D92A433B1073F
:1000B000D9F721E0A4E3B1E001C01D92A63FB20749
:1000C000E1F70E94860F0C94F90F0C940000CF9377
:1000D000DF93CDB7DEB78DE990E090933D0180933B
:1000E0003C0110923F0110923E0182E08093370163
:1000F000109241011092400184E391E09093F3014A
:100100008093F20110924B0110924A0184EB90E02F
:1001100090934D0180934C0181E0809345011092B2
:100120004F0110924E0182E491E09093F10180938F
:10013000F0010000DF91CF910895CF93DF9300D0BD
:100140001F92CDB7DEB789837B836A838981682F4D
:1001500080E090E00E94B90E80E090E00F900F9058
:100160000F90DF91CF910895CF93DF9300D0CDB75B
:10017000DEB79A83898300000E94DF0E8823E1F3B3
:1001800080E090E00E94990E882F90E00F900F90F1
:10019000DF91CF910895CF93DF93CDB7DEB787E896
:1001A00091E00E94310B0000DF91CF910895EF9212
:1001B000FF920F931F93CF93DF93CDB7DEB72C97AA
:1001C0000FB6F894DEBF0FBECDBF9A8389834B83F1
:1001D0005C836D837E8338872F831A870987FC862B
:1001E000EB8689819A8121E030E0FC013183208314
:1001F00089819A812F813885FC013383228329816B
:100200003A818B819C81AD81BE81F9018483958384
:10021000A683B78329813A818B819C81AD81BE8180
:10022000F90180879187A287B38789819A8129857F
:100230003A85FC013587248789819A812B853C8505
:10024000FC01378726872091500130915101898127
:100250009A81FC01318B208B89819A819093510185
:100260008093500100002C960FB6F894DEBF0FBEAD
:10027000CDBFDF91CF911F910F91FF90EF90089527
:10028000CF93DF9300D0CDB7DEB71A82198229C091
:1002900029813A81C901880F991F880F991F880FFA
:1002A000991F820F931F880F991F805A9E4FFC0140
:1002B00080819181892B81F429813A81C901880F3C
:1002C000991F880F991F880F991F820F931F880FFE
:1002D000991F805A9E4F0BC089819A8101969A83FB
:1002E000898389819A8108979CF280E090E00F9041
:1002F0000F90DF91CF910895CF93DF93CDB7DEB705
:100300008091500190915101DF91CF910895CF9349
:10031000DF9300D0CDB7DEB78091500190915101AD
:100320009A8389833CC089819A81FC018081918173
:10033000019771F589819A81FC0180859185A2855B
:10034000B385892B8A2B8B2B19F189819A81FC012A
:1003500080859185A285B3850197A109B10929817D
:100360003A81F90180879187A287B38789819A8131
:10037000FC0180859185A285B385892B8A2B8B2BE7
:1003800039F489819A8122E030E0FC0131832083B5
:1003900089819A81FC01808991899A8389838981E5
:1003A0009A81892B09F0BFCF00000F900F90DF9149
:1003B000CF910895CF93DF9300D000D0CDB7DEB7B3
:1003C00080915001909151019A8389831C821B82F4
:1003D0004CC089819A81FC01808191810297D1F57D
:1003E00089819A81FC0184859585892B99F1898180
:1003F0009A81FC012485358589819A81FC01868555
:100400009785F901099589819A81FC0182819381FF
:10041000892B59F489819A81FC011182108289818A
:100420009A81FC011586148615C089819A81FC0188
:1004300084819581A681B78129813A81F9018087DC
:100440009187A287B38789819A8121E030E0FC01FE
:100450003183208389819A819C838B8389819A81CE
:10046000FC01808991899A83898389819A81892B6A
:1004700009F0AFCF00000F900F900F900F90DF9119
:10048000CF910895CF93DF9300D000D0CDB7DEB7E2
:100490009C838B832B813C81C901880F991F880F16
:1004A000991F880F991F821B930B80509F4F9A832F
:1004B000898384E690E0FC018081482F89819A81BC
:1004C000FC018681282F30E081E090E002C0880F97
:1004D000991F2A95E2F78095242F282384E690E03F
:1004E000FC01208300000F900F900F900F90DF9180
:1004F000CF910895CF93DF9300D000D0CDB7DEB772
:100500009C838B832B813C81C901880F991F880FA5
:10051000991F880F991F821B930B80509F4F9A83BE
:10052000898389819A81FC018381882F90E0FC0175
:10053000108200000F900F900F900F90DF91CF91DD
:100540000895CF93DF9300D000D000D0CDB7DEB7B1
:100550009C838B837E836D832B813C81C901880FB3
:10056000991F880F991F880F991F821B930B80502A
:100570009F4F9A83898389819A81FC018081882F8A
:1005800090E0FC01208189819A81FC018081882F83
:1005900090E02C7FFC01208389819A81FC0181817C
:1005A000882F90E0FC01208189819A81FC01818162
:1005B000882F90E0277FFC0120838D819E818130F0
:1005C000910549F081309105C0F082309105B9F074
:1005D0000397B9F017C089819A81FC018081882F27
:1005E00090E0FC01208189819A81FC018081882F23
:1005F00090E02260FC01208305C0000003C00000E1
:1006000001C00000000026960FB6F894DEBF0FBEB2
:10061000CDBFDF91CF910895CF93DF9300D000D06D
:100620001F92CDB7DEB79C838B836D832B813C817A
:10063000C901880F991F880F991F880F991F821B66
:10064000930B80509F4F9A83898389819A81FC0103
:100650008281882F90E0FC01308189819A81FC01A0
:100660008281882F90E02D81232BFC0120830000C4
:100670000F900F900F900F900F90DF91CF910895F2
:10068000CF93DF9300D000D01F92CDB7DEB79C830D
:100690008B836D832B813C81C901880F991F880F43
:1006A000991F880F991F821B930B80509F4F9A832D
:1006B000898389819A81FC018281882F90E0FC01E5
:1006C0008081982F8D818095292F282389819A8177
:1006D000FC018281882F90E0FC01208300000F90B4
:1006E0000F900F900F900F90DF91CF910895CF93BF
:1006F000DF9300D000D000D0CDB7DEB79C838B83D2
:100700007E836D832B813C81C901880F991F880FDF
:10071000991F880F991F821B930B80509F4F9A83BC
:10072000898389819A81FC018181882F90E0FC0175
:10073000208189819A81FC018181882F90E0287F26
:10074000FC0120838D819E8180349105B1F181343B
:10075000910530F48130910561F00897E1F063C0B4
:100760008115F1E09F07D9F18115944009F449C042
:100770005AC089819A81FC018181882F90E0FC0117
:10078000208189819A81FC018181882F90E02160FC
:10079000FC01208348C089819A81FC018181882FD6
:1007A00090E0FC01208189819A81FC018181882F60
:1007B00090E02260FC01208336C089819A81FC018F
:1007C0008181882F90E0FC01208189819A81FC0140
:1007D0008181882F90E02360FC01208324C08981DF
:1007E0009A81FC018181882F90E0FC012081898120
:1007F0009A81FC018181882F90E02460FC01208394
:1008000012C089819A81FC018181882F90E0FC01CE
:10081000208189819A81FC018181882F90E0256067
:10082000FC0120830000000026960FB6F894DEBF7E
:100830000FBECDBFDF91CF910895CF93DF9300D04E
:1008400000D000D01F92CDB7DEB79C838B836D8321
:100850005F834E832B813C81C901880F991F880FCC
:10086000991F880F991F821B930B80509F4F9A836B
:1008700089838E819F81009719F0019759F014C0E8
:1008800089819A81FC018481882F90E02D81FC016F
:1008900020830AC089819A81FC018581882F90E09C
:1008A0002D81FC0120830000000027960FB6F894EC
:1008B000DEBF0FBECDBFDF91CF910895CF93DF9301
:1008C00000D000D01F92CDB7DEB79C838B836D83A1
:1008D0002B813C81C901880F991F880F991F880FB0
:1008E000991F821B930B80509F4F9A838983898124
:1008F0009A81FC018481882F90E02D81FC01208366
:1009000000000F900F900F900F900F90DF91CF91FC
:100910000895CF93DF93CDB7DEB700000000DF91DD
:10092000CF910895CF93DF93CDB7DEB70E948904AE
:100930000000DF91CF910895CF93DF93CDB7DEB75D
:100940000E9489040000DF91CF910895CF93DF9337
:10095000CDB7DEB70E9489040000DF91CF910895E2
:10096000CF93DF93CDB7DEB70E9489040000DF91FB
:10097000CF910895CF93DF93CDB7DEB70E9489045E
:100980000000DF91CF910895CF93DF93CDB7DEB70D
:100990000E9489040000DF91CF910895CF93DF93E7
:1009A000CDB7DEB70E9489040000DF91CF91089592
:1009B000CF93DF93CDB7DEB70E9489040000DF91AB
:1009C000CF910895CF93DF93CDB7DEB70E9489040E
:1009D0000000DF91CF910895CF93DF93CDB7DEB7BD
:1009E0000E9489040000DF91CF910895CF93DF9397
:1009F000CDB7DEB70E9489040000DF91CF91089542
:100A0000CF93DF93CDB7DEB70E9489040000DF915A
:100A1000CF9108951F920F920FB60F9211240BB62B
:100A20000F922F933F934F935F936F937F938F9387
:100A30009F93AF93BF93EF93FF93CF93DF93CDB784
:100A4000DEB70E9489040000DF91CF91FF91EF9102
:100A5000BF91AF919F918F917F916F915F914F91D6
:100A60003F912F910F900BBE0F900FBE0F901F90D4
:100A700018951F920F920FB60F9211240BB60F927A
:100A80002F933F934F935F936F937F938F939F9396
:100A9000AF93BF93EF93FF93CF93DF93CDB7DEB7C1
:100AA0000E9489040000DF91CF91FF91EF91BF91E7
:100AB000AF919F918F917F916F915F914F913F91F6
:100AC0002F910F900BBE0F900FBE0F901F90189597
:100AD0001F920F920FB60F9211240BB60F922F9305
:100AE0003F934F935F936F937F938F939F93AF93B6
:100AF000BF93EF93FF93CF93DF93CDB7DEB70E9401
:100B000089040000DF91CF91FF91EF91BF91AF91E8
:100B10009F918F917F916F915F914F913F912F9115
:100B20000F900BBE0F900FBE0F901F9018951F9245
:100B30000F920FB60F9211240BB60F922F933F9383
:100B40004F935F936F937F938F939F93AF93BF93D5
:100B5000EF93FF93CF93DF93CDB7DEB70E94890465
:100B60000000DF91CF91FF91EF91BF91AF919F91E5
:100B70008F917F916F915F914F913F912F910F9046
:100B80000BBE0F900FBE0F901F9018951F920F92E3
:100B90000FB60F9211240BB60F922F933F934F93E2
:100BA0005F936F937F938F939F93AF93BF93EF93D5
:100BB000FF93CF93DF93CDB7DEB70E948904000087
:100BC000DF91CF91FF91EF91BF91AF919F918F9165
:100BD0007F916F915F914F913F912F910F900BBE3D
:100BE0000F900FBE0F901F9018951F920F920FB687
:100BF0000F9211240BB60F922F933F934F935F9355
:100C00006F937F938F939F93AF93BF93EF93FF93D4
:100C1000CF93DF93CDB7DEB70E9489040000DF9148
:100C2000CF91FF91EF91BF91AF919F918F917F9164
:100C30006F915F914F913F912F910F900BBE0F904D
:100C40000FBE0F901F9018951F920F920FB60F9224
:100C500011240BB60F922F933F934F935F936F9393
:100C60007F938F939F93AF93BF93EF93FF93CF9314
:100C7000DF93CDB7DEB70E9489040000DF91CF91EA
:100C8000FF91EF91BF91AF919F918F917F916F9164
:100C90005F914F913F912F910F900BBE0F900FBE20
:100CA0000F901F9018951F920F920FB60F9211245C
:100CB0000BB60F922F933F934F935F936F937F9356
:100CC0008F939F93AF93BF93EF93FF93CF93DF9354
:100CD000CDB7DEB70E9489040000DF91CF91FF916C
:100CE000EF91BF91AF919F918F917F916F915F91A4
:100CF0004F913F912F910F900BBE0F900FBE0F9011
:100D00001F9018951F920F920FB60F9211240BB6D9
:100D10000F922F933F934F935F936F937F938F9394
:100D20009F93AF93BF93EF93FF93CF93DF93CDB791
:100D3000DEB70E94980A0000DF91CF91FF91EF91FA
:100D4000BF91AF919F918F917F916F915F914F91E3
:100D50003F912F910F900BBE0F900FBE0F901F90E1
:100D600018951F920F920FB60F9211240BB60F9287
:100D70002F933F934F935F936F937F938F939F93A3
:100D8000AF93BF93EF93FF93CF93DF93CDB7DEB7CE
:100D90000E94A20A0000DF91CF91FF91EF91BF91D5
:100DA000AF919F918F917F916F915F914F913F9103
:100DB0002F910F900BBE0F900FBE0F901F901895A4
:100DC0001F920F920FB60F9211240BB60F922F9312
:100DD0003F934F935F936F937F938F939F93AF93C3
:100DE000BF93EF93FF93CF93DF93CDB7DEB70E940E
:100DF0007A0A0000DF91CF91FF91EF91BF91AF91FF
:100E00009F918F917F916F915F914F913F912F9122
:100E10000F900BBE0F900FBE0F901F9018951F9252
:100E20000F920FB60F9211240BB60F922F933F9390
:100E30004F935F936F937F938F939F93AF93BF93E2
:100E4000EF93FF93CF93DF93CDB7DEB70E94890472
:100E50000000DF91CF91FF91EF91BF91AF919F91F2
:100E60008F917F916F915F914F913F912F910F9053
:100E70000BBE0F900FBE0F901F9018951F920F92F0
:100E80000FB60F9211240BB60F922F933F934F93EF
:100E90005F936F937F938F939F93AF93BF93EF93E2
:100EA000FF93CF93DF93CDB7DEB70E948904000094
:100EB000DF91CF91FF91EF91BF91AF919F918F9172
:100EC0007F916F915F914F913F912F910F900BBE4A
:100ED0000F900FBE0F901F9018951F920F920FB694
:100EE0000F9211240BB60F922F933F934F935F9362
:100EF0006F937F938F939F93AF93BF93EF93FF93E2
:100F0000CF93DF93CDB7DEB70E9489040000DF9155
:100F1000CF91FF91EF91BF91AF919F918F917F9171
:100F20006F915F914F913F912F910F900BBE0F905A
:100F30000FBE0F901F9018951F920F920FB60F9231
:100F400011240BB60F922F933F934F935F936F93A0
:100F50007F938F939F93AF93BF93EF93FF93CF9321
:100F6000DF93CDB7DEB70E9489040000DF91CF91F7
:100F7000FF91EF91BF91AF919F918F917F916F9171
:100F80005F914F913F912F910F900BBE0F900FBE2D
:100F90000F901F9018951F920F920FB60F92112469
:100FA0000BB60F922F933F934F935F936F937F9363
:100FB0008F939F93AF93BF93EF93FF93CF93DF9361
:100FC000CDB7DEB70E948E0A0000DF91CF91FF916E
:100FD000EF91BF91AF919F918F917F916F915F91B1
:100FE0004F913F912F910F900BBE0F900FBE0F901E
:100FF0001F9018951F920F920FB60F9211240BB6E7
:101000000F922F933F934F935F936F937F938F93A1
:101010009F93AF93BF93EF93FF93CF93DF93CDB79E
:10102000DEB70E94840A0000DF91CF91FF91EF911B
:10103000BF91AF919F918F917F916F915F914F91F0
:101040003F912F910F900BBE0F900FBE0F901F90EE
:1010500018951F920F920FB60F9211240BB60F9294
:101060002F933F934F935F936F937F938F939F93B0
:10107000AF93BF93EF93FF93CF93DF93CDB7DEB7DB
:101080000E94700A0000DF91CF91FF91EF91BF9114
:10109000AF919F918F917F916F915F914F913F9110
:1010A0002F910F900BBE0F900FBE0F901F901895B1
:1010B0001F920F920FB60F9211240BB60F922F931F
:1010C0003F934F935F936F937F938F939F93AF93D0
:1010D000BF93EF93FF93CF93DF93CDB7DEB70E941B
:1010E00089040000DF91CF91FF91EF91BF91AF9103
:1010F0009F918F917F916F915F914F913F912F9130
:101100000F900BBE0F900FBE0F901F9018951F925F
:101110000F920FB60F9211240BB60F922F933F939D
:101120004F935F936F937F938F939F93AF93BF93EF
:10113000EF93FF93CF93DF93CDB7DEB70E949B0B66
:101140000000DF91CF91FF91EF91BF91AF919F91FF
:101150008F917F916F915F914F913F912F910F9060
:101160000BBE0F900FBE0F901F9018951F920F92FD
:101170000FB60F9211240BB60F922F933F934F93FC
:101180005F936F937F938F939F93AF93BF93EF93EF
:10119000FF93CF93DF93CDB7DEB70E94B20B000071
:1011A000DF91CF91FF91EF91BF91AF919F918F917F
:1011B0007F916F915F914F913F912F910F900BBE57
:1011C0000F900FBE0F901F9018951F920F920FB6A1
:1011D0000F9211240BB60F922F933F934F935F936F
:1011E0006F937F938F939F93AF93BF93EF93FF93EF
:1011F000CF93DF93CDB7DEB70E94E2040000DF910A
:10120000CF91FF91EF91BF91AF919F918F917F917E
:101210006F915F914F913F912F910F900BBE0F9067
:101220000FBE0F901F9018951F920F920FB60F923E
:1012300011240BB60F922F933F934F935F936F93AD
:101240007F938F939F93AF93BF93EF93FF93CF932E
:10125000DF93CDB7DEB70E9489040000DF91CF9104
:10126000FF91EF91BF91AF919F918F917F916F917E
:101270005F914F913F912F910F900BBE0F900FBE3A
:101280000F901F9018951F920F920FB60F92112476
:101290000BB60F922F933F934F935F936F937F9370
:1012A0008F939F93AF93BF93EF93FF93CF93DF936E
:1012B000CDB7DEB70E9489040000DF91CF91FF9186
:1012C000EF91BF91AF919F918F917F916F915F91BE
:1012D0004F913F912F910F900BBE0F900FBE0F902B
:1012E0001F9018951F920F920FB60F9211240BB6F4
:1012F0000F922F933F934F935F936F937F938F93AF
:101300009F93AF93BF93EF93FF93CF93DF93CDB7AB
:10131000DEB70E9489040000DF91CF91FF91EF9129
:10132000BF91AF919F918F917F916F915F914F91FD
:101330003F912F910F900BBE0F900FBE0F901F90FB
:1013400018951F920F920FB60F9211240BB60F92A1
:101350002F933F934F935F936F937F938F939F93BD
:10136000AF93BF93EF93FF93CF93DF93CDB7DEB7E8
:101370000E9489040000DF91CF91FF91EF91BF910E
:10138000AF919F918F917F916F915F914F913F911D
:101390002F910F900BBE0F900FBE0F901F901895BE
:1013A0001F920F920FB60F9211240BB60F922F932C
:1013B0003F934F935F936F937F938F939F93AF93DD
:1013C000BF93EF93FF93CF93DF93CDB7DEB70E9428
:1013D00089040000DF91CF91FF91EF91BF91AF9110
:1013E0009F918F917F916F915F914F913F912F913D
:1013F0000F900BBE0F900FBE0F901F9018951F926D
:101400000F920FB60F9211240BB60F922F933F93AA
:101410004F935F936F937F938F939F93AF93BF93FC
:10142000EF93FF93CF93DF93CDB7DEB70E94CF0B3F
:101430000000DF91CF91FF91EF91BF91AF919F910C
:101440008F917F916F915F914F913F912F910F906D
:101450000BBE0F900FBE0F901F9018951F920F920A
:101460000FB60F9211240BB60F922F933F934F9309
:101470005F936F937F938F939F93AF93BF93EF93FC
:10148000FF93CF93DF93CDB7DEB70E94D70B000059
:10149000DF91CF91FF91EF91BF91AF919F918F918C
:1014A0007F916F915F914F913F912F910F900BBE64
:1014B0000F900FBE0F901F901895CF93DF93CDB76D
:1014C000DEB70E9400050000DF91CF910895CF9311
:1014D000DF93CDB7DEB778940000DF91CF91089508
:1014E000CF93DF93CDB7DEB70E94440B0000DF91AE
:1014F000CF910895CF93DF93CDB7DEB70E94440B11
:101500000000DF91CF910895CF93DF93CDB7DEB781
:101510000E94440B0000DF91CF910895CF93DF9399
:10152000CDB7DEB70E94440B0000DF91CF91089544
:10153000CF93DF93CDB7DEB70E94440B0000DF915D
:10154000CF910895CF93DF93CDB7DEB70E94440BC0
:101550000000DF91CF910895CF93DF9300D0CDB7F6
:10156000DEB71A82198289819A810E94420289819A
:101570009A810E947A0289819A8161E070E00E94DA
:10158000A10289819A8169EF0E945E0489819A8112
:1015900064E00E940C0389819A8160E470E00E94FB
:1015A00077030E94670A00000F900F90DF91CF91A0
:1015B0000895AF92BF92CF92DF92EF92FF920F9376
:1015C0001F93CF93DF93CDB7DEB729970FB6F8946B
:1015D000DEBF0FBECDBF8FB7F894898380915201D3
:1015E0008A83809153018B83809154018C838091F5
:1015F00055018D83809156018E83809157018F8391
:1016000080915801888780915901898789818FBF8E
:101610002A813B814C815D816E817F81888599859E
:10162000A22EB32EC42ED52EE62EF72E082F192F5C
:101630002A2D3B2D4C2D5D2D6E2D7F2D802F912F32
:1016400029960FB6F894DEBF0FBECDBFDF91CF91C4
:101650001F910F91FF90EF90DF90CF90BF90AF90D0
:101660000895CF93DF9300D0CDB7DEB79A838983F7
:1016700089819A8190935B0180935A0100000F90B9
:101680000F90DF91CF910895AF92BF92CF92DF92EA
:10169000EF92FF920F931F93CF93DF93CDB7DEB7F7
:1016A000A0905201B0905301C0905401D0905501C8
:1016B000E0905601F09057010091580110915901A6
:1016C0002A2D3B2D4C2D5D2D6E2D7F2D802F912FA2
:1016D000A1E00E94C20FA22EB32EC42ED52EE62E5C
:1016E000F72E082F192FA0925201B0925301C092E9
:1016F0005401D0925501E0925601F09257010093A7
:1017000058011093590180915A0190915B01892BE6
:1017100031F080915A0190915B01FC010995000024
:10172000DF91CF911F910F91FF90EF90DF90CF90BD
:10173000BF90AF900895CF93DF931F92CDB7DEB7E0
:1017400080910E0190910F01FC018681898389812E
:1017500080935C0181E080935D0100000F90DF9138
:10176000CF910895CF93DF9300D0CDB7DEB78091AE
:101770000E0190910F019A83898320915E018981E6
:101780009A81FC01268380E090E00E944F0E109227
:101790005F0100000F900F90DF91CF910895CF93DC
:1017A000DF93CDB7DEB70000DF91CF910895CF93DF
:1017B000DF93CDB7DEB70000DF91CF910895CF93CF
:1017C000DF9300D0CDB7DEB79A83898389819A8170
:1017D000009719F0019759F014C084E690E0FC01DD
:1017E000208184E690E02D7FFC0120830AC084E6FE
:1017F00090E0FC01208184E690E02F7EFC012083B4
:10180000000000000F900F90DF91CF910895CF93CB
:10181000DF9300D000D000D0CDB7DEB79C838B83A0
:101820007E836D838B819C81880F991F825F9E4F81
:10183000FC01808191819A83898389819A81FC014D
:101840008181282F2B7F89819A81FC0121838981C5
:101850009A81FC018281282F217C89819A81FC0157
:1018600022838D819E81CC01A0E0B0E08A30910579
:10187000A105B10508F0AEC08F5B934FFC010C943D
:10188000B90FEC0C4B0C560C610C810C960CAB0C8C
:10189000C00CD50C6C0C89819A81FC018281282FA7
:1018A000226089819A81FC01228397C089819A8173
:1018B000FC018281282F246089819A81FC01228386
:1018C0008CC089819A81FC018281282F26608981C0
:1018D0009A81FC01228381C089819A81FC018181E6
:1018E000282F246089819A81FC01218389819A8132
:1018F000FC018281282F266089819A81FC01228344
:101900006CC089819A81FC018281282F24608981A1
:101910009A81FC01228389819A81FC018281282F8E
:10192000206289819A81FC01228357C089819A8132
:10193000FC018281282F266089819A81FC01228303
:1019400089819A81FC018281282F206289819A8174
:10195000FC01228342C089819A81FC018281282F67
:10196000246089819A81FC01228389819A81FC010A
:101970008281282F206389819A81FC0122832DC0D6
:1019800089819A81FC018281282F266089819A8130
:10199000FC01228389819A81FC018281282F2063A6
:1019A00089819A81FC01228318C089819A81FC0176
:1019B0008281282F266089819A81FC012283898176
:1019C0009A81FC018281282F286089819A81FC01FB
:1019D000228303C0000001C00000000026960FB65D
:1019E000F894DEBF0FBECDBFDF91CF910895CF93A6
:1019F000DF93CDB7DEB72B970FB6F894DEBF0FBEDF
:101A0000CDBF9F838E83488759876A877B878E8166
:101A10009F81880F991F825F9E4FFC018081918179
:101A20009C838B831A8219828B819C81FC0180812B
:101A3000882F90E08270992721E0892B09F420E01B
:101A40002D838B819C81FC018281882F90E0807C9A
:101A50009927892BC1F088859985AA85BB859C012A
:101A6000AD01220F331F441F551F80E094E2A4EF05
:101A7000B0E0BC01CD010E94970FDA01C9010197C6
:101A80009A83898346C08D81882301F18885998551
:101A9000AA85BB85880F991FAA1FBB1F880F991F96
:101AA000AA1FBB1F880F991FAA1FBB1F9C01AD0156
:101AB00080E094E2A4EFB0E0BC01CD010E94970F5A
:101AC000DA01C90101979A83898323C088859985A2
:101AD000AA85BB85880F991FAA1FBB1F880F991F56
:101AE000AA1FBB1F880F991FAA1FBB1F880F991F12
:101AF000AA1FBB1F9C01AD0180E094E2A4EFB0E0FF
:101B0000BC01CD010E94970FDA01C90101979A83A8
:101B1000898389819A81892F9927282F8B819C819C
:101B2000FC01258329818B819C81FC012483000099
:101B30002B960FB6F894DEBF0FBECDBFDF91CF91CD
:101B40000895CF93DF9300D000D000D0CDB7DEB79B
:101B50009C838B837E836D838B819C81880F991FEF
:101B6000825F9E4FFC01808191819A838983898164
:101B70009A81FC018281282F2F7389819A81FC012F
:101B8000228389819A81FC018081282F2D7F898180
:101B90009A81FC0120838D819E818130910549F0DD
:101BA0008130910538F18230910571F00397B9F0D9
:101BB00022C089819A81FC018081282F226089813D
:101BC0009A81FC01208317C089819A81FC0182815E
:101BD000282F206489819A81FC0122830CC089818D
:101BE0009A81FC018281282F206C89819A81FC01D5
:101BF000228301C00000000026960FB6F894DEBFD5
:101C00000FBECDBFDF91CF910895CF93DF9300D06A
:101C100000D0CDB7DEB79C838B838B819C81880FEE
:101C2000991F825F9E4FFC01808191819A838983F5
:101C300089819A81FC018181282F206E89819A8176
:101C4000FC01218300000F900F900F900F90DF9107
:101C5000CF910895CF93DF9300D000D0CDB7DEB7FA
:101C60009C838B838B819C81880F991F825F9E4F01
:101C7000FC01808191819A83898389819A81FC0109
:101C80008181282F206289819A81FC0121830000B3
:101C90000F900F900F900F90DF91CF910895CF93F9
:101CA000DF9300D000D0CDB7DEB79C838B838B81D0
:101CB0009C81880F991F825F9E4FFC0180819181DA
:101CC0009A83898389819A81FC018181282F2F7DC4
:101CD00089819A81FC01218300000F900F900F9061
:101CE0000F90DF91CF910895CF93DF9300D000D074
:101CF000CDB7DEB79C838B838B819C81880F991F26
:101D0000825F9E4FFC01808191819A8389838981C2
:101D10009A81FC018181282F286189819A81FC01A7
:101D2000218300000F900F900F900F90DF91CF91C3
:101D30000895CF93DF9300D000D0CDB7DEB79C835A
:101D40008B8380915D01882311F480E00BC08FB7F5
:101D5000F894898380915C018A8310925D01898166
:101D60008FBF8A810F900F900F900F90DF91CF91CE
:101D70000895CF93DF9300D000D0CDB7DEB79B831B
:101D80008A836C8301C0000080915F018823D9F7AA
:101D90008FB7F89489838C8180935E0181E0809372
:101DA0005F018A819B810E942A0E89818FBF00007A
:101DB0000F900F900F900F90DF91CF910895CF93D8
:101DC000DF93CDB7DEB780915D01DF91CF910895AC
:101DD000CF93DF9300D0CDB7DEB79A83898382E1BA
:101DE00091E00E94CE0F00000F900F90DF91CF91F5
:101DF0000895CF93DF9300D0CDB7DEB79A83898360
:101E00008DE191E00E94CE0F00000F900F90DF91C6
:101E1000CF910895CF93DF9300D0CDB7DEB79A83EB
:101E2000898388E291E00E94CE0F00000F900F900E
:101E3000DF91CF910895EF92FF920F931F93CF936D
:101E4000DF93CDB7DEB70E94CB000E944001E12CAA
:101E5000F12C08EE1EE020E030E048EB5BE060E0B3
:101E600070E00E94D7000E944001E12CF12C09EFA4
:101E70001EE020E030E040ED57E060E070E00E94BE
:101E8000D7000E944001E12CF12C0AE01FE020E085
:101E900030E048EE53E060E070E00E94D7000E941E
:101EA000DA01FDCFCF93DF9300D01F92CDB7DEB71D
:101EB0001A8219828FB7F8948B8389819A810E9444
:101EC000DF0B89819A8163E070E00E94070C8981B1
:101ED0009A8140E052EC61E070E00E94F70C898149
:101EE0009A8160E070E00E94A10D89819A810E9430
:101EF000050E89819A810E94740E8B818FBF00002C
:101F00000F900F900F90DF91CF910895CF93DF93B3
:101F1000CDB7DEB70E94AC0A0E94520F0E94670044
:101F20000E941B0F80E090E0DF91CF910895A1E225
:101F30001A2EAA1BBB1BFD010DC0AA1FBB1FEE1F43
:101F4000FF1FA217B307E407F50720F0A21BB30B8E
:101F5000E40BF50B661F771F881F991F1A9469F70A
:101F600060957095809590959B01AC01BD01CF0166
:101F70000895EE0FFF1F0024001C0BBE0790F69182
:101F8000E02D09940024A7FD00942A0F301D401D68
:101F9000501D601D701D801D901D08950F931F938F
:101FA000CF93DF93E091F201F091F3012381EC01F3
:101FB00010E000E021FD08C00FEF1FEF14C00995ED
:101FC000892B11F00FEF1FEF89916091F201709151
:101FD000F301DB011896ED91FC918111F0CF8AE0BD
:101FE0000995892B49F7C801DF91CF911F910F9176
:061FF0000895F894FFCFF4
:101FF60044456E46474805B0B170B2B3B406C0005A
:10200600C80063616C6C6261636B20310063616C54
:102016006C6261636B20320063616C6C6261636B3E
:042026002033000063
:00000001FF
