:100000000C9450000C943E060C9471060C94A406BB
:100010000C94D7060C940A070C943D070C947007B7
:100020000C94A3070C94D6070C9409080C943C0874
:100030000C946F080C94A2080C94D5080C94080931
:100040000C943B090C946E090C94A1090C94D409EE
:100050000C94070A0C943A0A0C946D0A0C94A00AAA
:100060000C94D30A0C94060B0C94390B0C946C0B67
:100070000C949F0B0C94D20B0C94050C0C946F00F9
:100080000C946F000C946F000C946F00A80E070E78
:10009000120E1D0E3D0E520E670E7C0E910E280E96
:1000A00011241FBECFEFD0E4DEBFCDBF11E0A0E032
:1000B000B1E0E4E8F5E200E00BBF02C007900D926A
:1000C000A231B107D9F721E0A2E1B1E001C01D9250
:1000D000A23BB207E1F70E9477120C94C0120C9475
:1000E0000000CF93DF93CDB7DEB78FE291E00E949F
:1000F000E10C0E945D0C0000DF91CF910895EF921A
:10010000FF920F931F93CF93DF93CDB7DEB72C975A
:100110000FB6F894DEBF0FBECDBF9A8389834B83A1
:100120005C836D837E8338872F831A870987FC86DB
:10013000EB8689819A8121E030E0FC0131832083C4
:1001400089819A812F813885FC013383228329811B
:100150003A818B819C81AD81BE81F9018483958335
:10016000A683B78329813A818B819C81AD81BE8131
:10017000F90180879187A287B38789819A81298530
:100180003A85FC013587248789819A812B853C85B6
:10019000FC01378726872091120130911301898154
:1001A0009A81FC01318B208B89819A819093130174
:1001B0008093120100002C960FB6F894DEBF0FBE9C
:1001C000CDBFDF91CF911F910F91FF90EF900895D8
:1001D000CF93DF9300D0CDB7DEB71A82198229C042
:1001E00089819A81880F991F9C01220F331F220F4A
:1001F000331F220F331F820F931F8E5D9E4FFC0112
:1002000080819181892B81F489819A81880F991F3E
:100210009C01220F331F220F331F220F331F820F27
:10022000931F8E5D9E4F0BC089819A8101969A83A0
:10023000898389819A8108979CF280E090E00F90F1
:100240000F90DF91CF910895CF93DF93CDB7DEB7B5
:100250008091120190911301DF91CF910895CF9376
:10026000DF9300D0CDB7DEB78091120190911301DA
:100270009A8389833CC089819A81FC018081918124
:10028000019771F589819A81FC0180859185A2850C
:10029000B385892B8A2B8B2B19F189819A81FC01DB
:1002A00080859185A285B3850197A109B10929812E
:1002B0003A81F90180879187A287B38789819A81E2
:1002C000FC0180859185A285B385892B8A2B8B2B98
:1002D00039F489819A8122E030E0FC013183208366
:1002E00089819A81FC01808991899A838983898196
:1002F0009A81892B09F0BFCF00000F900F90DF91FA
:10030000CF910895CF93DF9300D000D0CDB7DEB763
:1003100080911201909113019A8389831C821B8220
:100320004CC089819A81FC01808191810297D1F52D
:1003300089819A81FC0184859585892B99F1898130
:100340009A81FC012485358589819A81FC01868505
:100350009785F901099589819A81FC0182819381B0
:10036000892B59F489819A81FC011182108289813B
:100370009A81FC011586148615C089819A81FC0139
:1003800084819581A681B78129813A81F90180878D
:100390009187A287B38789819A8121E030E0FC01AF
:1003A0003183208389819A819C838B8389819A817F
:1003B000FC01808991899A83898389819A81892B1B
:1003C00009F0AFCF00000F900F900F900F90DF91CA
:1003D000CF910895CF93DF9300D000D0CDB7DEB793
:1003E0009C838B832B813C81C901880F991F880FC7
:1003F000991F880F991F821B930B80509F4F9A83E0
:10040000898384E690E024E630E0F9012081622FC0
:1004100029813A81F9012681422F50E021E030E024
:1004200002C0220F331F4A95E2F720952623FC01D4
:10043000208300000F900F900F900F90DF91CF91CD
:100440000895CF93DF9300D000D0CDB7DEB79C8363
:100450008B832B813C81C901880F991F880F991FBD
:10046000880F991F821B930B80509F4F9A8389831B
:1004700089819A81FC018381882F90E0FC011082A0
:1004800000000F900F900F900F90DF91CF91089583
:10049000CF93DF9300D000D000D0CDB7DEB79C83E0
:1004A0008B837E836D832B813C81C901880F991FCB
:1004B000880F991F880F991F821B930B80509F4FA5
:1004C0009A83898389819A81FC018081882F90E0B9
:1004D0009C0189819A81FC018081882F90E0FC0138
:1004E00080818C7FF901808389819A81FC018181DF
:1004F000882F90E09C0189819A81FC018181882F5D
:1005000090E0FC018081877FF90180838D819E814D
:100510008130910549F081309105C8F08230910514
:10052000C1F00397C1F018C089819A81FC018081D4
:10053000882F90E09C0189819A81FC018081882F1D
:1005400090E0FC0180818260F901808305C0000099
:1005500003C0000001C00000000026960FB6F8940A
:10056000DEBF0FBECDBFDF91CF910895CF93DF9354
:1005700000D000D01F92CDB7DEB79C838B836D83F4
:100580002B813C81C901880F991F880F991F880F03
:10059000991F821B930B80509F4F9A838983898177
:1005A0009A81FC018281882F90E09C0189819A8147
:1005B000FC018281882F90E0FC0190818D81892B44
:1005C000F901808300000F900F900F900F900F9013
:1005D000DF91CF910895CF93DF9300D000D01F9289
:1005E000CDB7DEB79C838B836D832B813C81C901A2
:1005F000880F991F880F991F880F991F821B930BD3
:1006000080509F4F9A83898389819A81FC018281DE
:10061000882F90E09C0189819A81FC018281882F3A
:1006200090E0FC018081982F8D8180958923F901CC
:10063000808300000F900F900F900F900F90DF912C
:10064000CF910895CF93DF9300D000D000D0CDB7E5
:10065000DEB79C838B837E836D832B813C81C901B4
:10066000880F991F880F991F880F991F821B930B62
:1006700080509F4F9A83898389819A81FC0181816F
:10068000882F90E09C0189819A81FC018181882FCB
:1006900090E0FC018081887FF90180838D819E81BB
:1006A00080349105C9F18134910530F48130910590
:1006B00069F00897F1F069C08115F1E09F0709F42E
:1006C0003EC08115944009F44DC05FC089819A8174
:1006D000FC018181882F90E09C0189819A81FC0135
:1006E0008181882F90E0FC0180818160F901808305
:1006F0004CC089819A81FC018181882F90E09C0106
:1007000089819A81FC018181882F90E0FC018081A0
:100710008260F901808339C089819A81FC018181DD
:10072000882F90E09C0189819A81FC018181882F2A
:1007300090E0FC0180818360F901808326C089817B
:100740009A81FC018181882F90E09C0189819A81A6
:10075000FC018181882F90E0FC0180818460F90197
:10076000808313C089819A81FC018181882F90E068
:100770009C0189819A81FC018181882F90E0FC0194
:1007800080818560F90180830000000026960FB605
:10079000F894DEBF0FBECDBFDF91CF910895CF9308
:1007A000DF93CDB7DEB727970FB6F894DEBF0FBE45
:1007B000CDBF9C838B836D835F834E832B813C8174
:1007C000C901880F991F880F991F880F991F821BD5
:1007D000930B80509F4F9A8389838E819F810097CE
:1007E00019F0019759F014C089819A81FC01848124
:1007F000882F90E02D81FC0120830AC089819A8195
:10080000FC018581882F90E02D81FC012083000070
:10081000000027960FB6F894DEBF0FBECDBFDF9164
:10082000CF910895CF93DF9300D000D01F92CDB722
:10083000DEB79C838B836D832B813C81C901880F3C
:10084000991F880F991F880F991F821B930B805047
:100850009F4F9A83898389819A81FC018481882FA3
:1008600090E02D81FC01208300000F900F900F90ED
:100870000F900F90DF91CF910895CF93DF93CDB775
:10088000DEB728970FB6F894DEBF0FBECDBF8D83BD
:100890007F836E8348878D81882F90E09A83898338
:1008A0008D81882F90E001969C838B838E819F8120
:1008B00081309105C1F18130910540F08230910580
:1008C00009F45EC0039709F471C09CC089819A81C4
:1008D000FC018081482F8885282F30E081E090E05E
:1008E00002C0880F991F2A95E2F780958423282F4C
:1008F00089819A81FC0120838B819C81FC0180810C
:10090000482F8885282F30E081E090E002C0880FD2
:10091000991F2A95E2F780958423282F8B819C814B
:10092000FC0120836FC089819A81FC018081482F5E
:100930008885282F30E081E090E002C0880F991F61
:100940002A95E2F780958423282F89819A81FC01DA
:1009500020838B819C81FC018081482F8885282FF2
:1009600030E081E090E002C0880F991F2A95E2F7FD
:1009700080958423282F8B819C81FC01208342C099
:1009800089819A81FC018081482F8885282F30E059
:1009900081E090E002C0880F991F2A95E2F7842B2E
:1009A000282F89819A81FC0120832CC089819A811A
:1009B000FC018081482F8885282F30E081E090E07D
:1009C00002C0880F991F2A95E2F780958423282F6B
:1009D00089819A81FC0120838B819C81FC0180812B
:1009E000482F8885282F30E081E090E002C0880FF2
:1009F000991F2A95E2F7842B282F8B819C81FC017B
:100A000020830000000028960FB6F894DEBF0FBECA
:100A1000CDBFDF91CF910895CF93DF9300D0CDB7B5
:100A2000DEB789836A838981882F90E09C01898160
:100A3000882F90E0FC018081682F8A81482F50E048
:100A400081E090E002C0880F991F4A95E2F7862B5B
:100A5000F901808300000F900F90DF91CF910895EE
:100A6000CF93DF9300D0CDB7DEB789836A838981C6
:100A7000882F90E09C018981882F90E0FC01808183
:100A8000682F8A81482F50E081E090E002C0880FF3
:100A9000991F4A95E2F780958623F901808300002B
:100AA0000F900F90DF91CF910895CF93DF9300D0F7
:100AB000CDB7DEB789836A838981882F90E0FC01F6
:100AC0008081882F90E02A81222F30E002C0959506
:100AD00087952A95E2F78170992721E0892B09F4FF
:100AE00020E0822F0F900F90DF91CF910895CF9348
:100AF000DF9300D0CDB7DEB789836A838981882FE1
:100B000090E09C018981882F90E0FC018081682F12
:100B10008A81482F50E081E090E002C0880F991F41
:100B20004A95E2F78627F901808300000F900F9025
:100B3000DF91CF910895CF93DF931F92CDB7DEB7AA
:100B400089838981882F90E0FC0180810F90DF915B
:100B5000CF910895CF93DF9300D0CDB7DEB78983CF
:100B60006A838981882F90E02A81FC01208300001C
:100B70000F900F90DF91CF910895CF93DF93CDB772
:100B8000DEB700000000DF91CF910895CF93DF938F
:100B9000CDB7DEB70E94BD050000DF91CF9108956B
:100BA000CF93DF93CDB7DEB70E94BD050000DF9184
:100BB000CF910895CF93DF93CDB7DEB70E94BD05E7
:100BC0000000DF91CF910895CF93DF93CDB7DEB7CB
:100BD0000E94BD050000DF91CF910895CF93DF9370
:100BE000CDB7DEB70E94BD050000DF91CF9108951B
:100BF000CF93DF93CDB7DEB70E94BD050000DF9134
:100C0000CF910895CF93DF93CDB7DEB70E94BD0596
:100C10000000DF91CF910895CF93DF93CDB7DEB77A
:100C20000E94BD050000DF91CF910895CF93DF931F
:100C3000CDB7DEB70E94BD050000DF91CF910895CA
:100C4000CF93DF93CDB7DEB70E94BD050000DF91E3
:100C5000CF910895CF93DF93CDB7DEB70E94BD0546
:100C60000000DF91CF910895CF93DF93CDB7DEB72A
:100C70000E94BD050000DF91CF9108951F920F9251
:100C800000905F000F92112400905B000F922F9351
:100C90003F934F935F936F937F938F939F93AF9304
:100CA000BF93EF93FF93CF93DF93CDB7DEB70E944F
:100CB000BD050000DF91CF91FF91EF91BF91AF9102
:100CC0009F918F917F916F915F914F913F912F9164
:100CD0000F9000925B000F9000925F000F901F90AA
:100CE00018951F920F9200905F000F9211240090B0
:100CF0005B000F922F933F934F935F936F937F937C
:100D00008F939F93AF93BF93EF93FF93CF93DF9313
:100D1000CDB7DEB70E94BD050000DF91CF91FF91F6
:100D2000EF91BF91AF919F918F917F916F915F9163
:100D30004F913F912F910F9000925B000F90009286
:100D40005F000F901F9018951F920F9200905F0008
:100D50000F92112400905B000F922F933F934F93BB
:100D60005F936F937F938F939F93AF93BF93EF9313
:100D7000FF93CF93DF93CDB7DEB70E94BD05000090
:100D8000DF91CF91FF91EF91BF91AF919F918F91A3
:100D90007F916F915F914F913F912F910F900092B2
:100DA0005B000F9000925F000F901F9018951F92AC
:100DB0000F9200905F000F92112400905B000F9241
:100DC0002F933F934F935F936F937F938F939F9353
:100DD000AF93BF93EF93FF93CF93DF93CDB7DEB77E
:100DE0000E94BD050000DF91CF91FF91EF91BF916F
:100DF000AF919F918F917F916F915F914F913F91B3
:100E00002F910F9000925B000F9000925F000F9067
:100E10001F9018951F920F9200905F000F9211245F
:100E200000905B000F922F933F934F935F936F93CC
:100E30007F938F939F93AF93BF93EF93FF93CF9342
:100E4000DF93CDB7DEB70E94BD050000DF91CF91E3
:100E5000FF91EF91BF91AF919F918F917F916F9192
:100E60005F914F913F912F910F9000925B000F90F7
:100E700000925F000F901F9018951F920F920090A4
:100E80005F000F92112400905B000F922F933F930D
:100E90004F935F936F937F938F939F93AF93BF9382
:100EA000EF93FF93CF93DF93CDB7DEB70E94BD05DD
:100EB0000000DF91CF91FF91EF91BF91AF919F9192
:100EC0008F917F916F915F914F913F912F910F90F3
:100ED00000925B000F9000925F000F901F9018959A
:100EE0001F920F9200905F000F92112400905B0000
:100EF0000F922F933F934F935F936F937F938F93B3
:100F00009F93AF93BF93EF93FF93CF93DF93CDB7AF
:100F1000DEB70E94BD050000DF91CF91FF91EF91F8
:100F2000BF91AF919F918F917F916F915F914F9101
:100F30003F912F910F9000925B000F9000925F0005
:100F40000F901F9018951F920F9200905F000F92C4
:100F5000112400905B000F922F933F934F935F9368
:100F60006F937F938F939F93AF93BF93EF93FF9371
:100F7000CF93DF93CDB7DEB70E94BD050000DF91B0
:100F8000CF91FF91EF91BF91AF919F918F917F9101
:100F90006F915F914F913F912F910F9000925B0065
:100FA0000F9000925F000F901F9018951F920F9264
:100FB00000905F000F92112400905B000F922F931E
:100FC0003F934F935F936F937F938F939F93AF93D1
:100FD000BF93EF93FF93CF93DF93CDB7DEB70E941C
:100FE000490C0000DF91CF91FF91EF91BF91AF913C
:100FF0009F918F917F916F915F914F913F912F9131
:101000000F9000925B000F9000925F000F901F9076
:1010100018951F920F9200905F000F92112400907C
:101020005B000F922F933F934F935F936F937F9348
:101030008F939F93AF93BF93EF93FF93CF93DF93E0
:10104000CDB7DEB70E94530C0000DF91CF91FF9126
:10105000EF91BF91AF919F918F917F916F915F9130
:101060004F913F912F910F9000925B000F90009253
:101070005F000F901F9018951F920F9200905F00D5
:101080000F92112400905B000F922F933F934F9388
:101090005F936F937F938F939F93AF93BF93EF93E0
:1010A000FF93CF93DF93CDB7DEB70E942B0C0000E8
:1010B000DF91CF91FF91EF91BF91AF919F918F9170
:1010C0007F916F915F914F913F912F910F9000927F
:1010D0005B000F9000925F000F901F9018951F9279
:1010E0000F9200905F000F92112400905B000F920E
:1010F0002F933F934F935F936F937F938F939F9320
:10110000AF93BF93EF93FF93CF93DF93CDB7DEB74A
:101110000E94BD050000DF91CF91FF91EF91BF913B
:10112000AF919F918F917F916F915F914F913F917F
:101130002F910F9000925B000F9000925F000F9034
:101140001F9018951F920F9200905F000F9211242C
:1011500000905B000F922F933F934F935F936F9399
:101160007F938F939F93AF93BF93EF93FF93CF930F
:10117000DF93CDB7DEB70E94BD050000DF91CF91B0
:10118000FF91EF91BF91AF919F918F917F916F915F
:101190005F914F913F912F910F9000925B000F90C4
:1011A00000925F000F901F9018951F920F92009071
:1011B0005F000F92112400905B000F922F933F93DA
:1011C0004F935F936F937F938F939F93AF93BF934F
:1011D000EF93FF93CF93DF93CDB7DEB70E94BD05AA
:1011E0000000DF91CF91FF91EF91BF91AF919F915F
:1011F0008F917F916F915F914F913F912F910F90C0
:1012000000925B000F9000925F000F901F90189566
:101210001F920F9200905F000F92112400905B00CC
:101220000F922F933F934F935F936F937F938F937F
:101230009F93AF93BF93EF93FF93CF93DF93CDB77C
:10124000DEB70E94BD050000DF91CF91FF91EF91C5
:10125000BF91AF919F918F917F916F915F914F91CE
:101260003F912F910F9000925B000F9000925F00D2
:101270000F901F9018951F920F9200905F000F9291
:10128000112400905B000F922F933F934F935F9335
:101290006F937F938F939F93AF93BF93EF93FF933E
:1012A000CF93DF93CDB7DEB70E943F0C0000DF91F4
:1012B000CF91FF91EF91BF91AF919F918F917F91CE
:1012C0006F915F914F913F912F910F9000925B0032
:1012D0000F9000925F000F901F9018951F920F9231
:1012E00000905F000F92112400905B000F922F93EB
:1012F0003F934F935F936F937F938F939F93AF939E
:10130000BF93EF93FF93CF93DF93CDB7DEB70E94E8
:10131000350C0000DF91CF91FF91EF91BF91AF911C
:101320009F918F917F916F915F914F913F912F91FD
:101330000F9000925B000F9000925F000F901F9043
:1013400018951F920F9200905F000F921124009049
:101350005B000F922F933F934F935F936F937F9315
:101360008F939F93AF93BF93EF93FF93CF93DF93AD
:10137000CDB7DEB70E94210C0000DF91CF91FF9125
:10138000EF91BF91AF919F918F917F916F915F91FD
:101390004F913F912F910F9000925B000F90009220
:1013A0005F000F901F9018951F920F9200905F00A2
:1013B0000F92112400905B000F922F933F934F9355
:1013C0005F936F937F938F939F93AF93BF93EF93AD
:1013D000FF93CF93DF93CDB7DEB70E94BD0500002A
:1013E000DF91CF91FF91EF91BF91AF919F918F913D
:1013F0007F916F915F914F913F912F910F9000924C
:101400005B000F9000925F000F901F9018951F9245
:101410000F9200905F000F92112400905B000F92DA
:101420002F933F934F935F936F937F938F939F93EC
:10143000AF93BF93EF93FF93CF93DF93CDB7DEB717
:101440000E945D0D0000DF91CF91FF91EF91BF9160
:10145000AF919F918F917F916F915F914F913F914C
:101460002F910F9000925B000F9000925F000F9001
:101470001F9018951F920F9200905F000F921124F9
:1014800000905B000F922F933F934F935F936F9366
:101490007F938F939F93AF93BF93EF93FF93CF93DC
:1014A000DF93CDB7DEB70E94740D0000DF91CF91BE
:1014B000FF91EF91BF91AF919F918F917F916F912C
:1014C0005F914F913F912F910F9000925B000F9091
:1014D00000925F000F901F9018951F920F9200903E
:1014E0005F000F92112400905B000F922F933F93A7
:1014F0004F935F936F937F938F939F93AF93BF931C
:10150000EF93FF93CF93DF93CDB7DEB70E9416061C
:101510000000DF91CF91FF91EF91BF91AF919F912B
:101520008F917F916F915F914F913F912F910F908C
:1015300000925B000F9000925F000F901F90189533
:101540001F920F9200905F000F92112400905B0099
:101550000F922F933F934F935F936F937F938F934C
:101560009F93AF93BF93EF93FF93CF93DF93CDB749
:10157000DEB70E94BD050000DF91CF91FF91EF9192
:10158000BF91AF919F918F917F916F915F914F919B
:101590003F912F910F9000925B000F9000925F009F
:1015A0000F901F9018951F920F9200905F000F925E
:1015B000112400905B000F922F933F934F935F9302
:1015C0006F937F938F939F93AF93BF93EF93FF930B
:1015D000CF93DF93CDB7DEB70E94BD050000DF914A
:1015E000CF91FF91EF91BF91AF919F918F917F919B
:1015F0006F915F914F913F912F910F9000925B00FF
:101600000F9000925F000F901F9018951F920F92FD
:1016100000905F000F92112400905B000F922F93B7
:101620003F934F935F936F937F938F939F93AF936A
:10163000BF93EF93FF93CF93DF93CDB7DEB70E94B5
:10164000BD050000DF91CF91FF91EF91BF91AF9168
:101650009F918F917F916F915F914F913F912F91CA
:101660000F9000925B000F9000925F000F901F9010
:1016700018951F920F9200905F000F921124009016
:101680005B000F922F933F934F935F936F937F93E2
:101690008F939F93AF93BF93EF93FF93CF93DF937A
:1016A000CDB7DEB70E94BD050000DF91CF91FF915D
:1016B000EF91BF91AF919F918F917F916F915F91CA
:1016C0004F913F912F910F9000925B000F900092ED
:1016D0005F000F901F9018951F920F9200905F006F
:1016E0000F92112400905B000F922F933F934F9322
:1016F0005F936F937F938F939F93AF93BF93EF937A
:10170000FF93CF93DF93CDB7DEB70E94BD050000F6
:10171000DF91CF91FF91EF91BF91AF919F918F9109
:101720007F916F915F914F913F912F910F90009218
:101730005B000F9000925F000F901F9018951F9212
:101740000F9200905F000F92112400905B000F92A7
:101750002F933F934F935F936F937F938F939F93B9
:10176000AF93BF93EF93FF93CF93DF93CDB7DEB7E4
:101770000E94910D0000DF91CF91FF91EF91BF91F9
:10178000AF919F918F917F916F915F914F913F9119
:101790002F910F9000925B000F9000925F000F90CE
:1017A0001F9018951F920F9200905F000F921124C6
:1017B00000905B000F922F933F934F935F936F9333
:1017C0007F938F939F93AF93BF93EF93FF93CF93A9
:1017D000DF93CDB7DEB70E94990D0000DF91CF9166
:1017E000FF91EF91BF91AF919F918F917F916F91F9
:1017F0005F914F913F912F910F9000925B000F905E
:1018000000925F000F901F901895CF93DF93CDB794
:10181000DEB70E9434060000DF91CF910895CF9388
:10182000DF93CDB7DEB778940000DF91CF910895B4
:10183000CF93DF93CDB7DEB7F8940000DF91CF915F
:101840000895CF93DF93CDB7DEB70E94F40C00006C
:10185000DF91CF910895CF93DF93CDB7DEB70E948C
:10186000F40C0000DF91CF910895CF93DF93CDB7B3
:10187000DEB70E94F40C0000DF91CF910895CF9362
:10188000DF93CDB7DEB70E94F40C0000DF91CF915B
:101890000895CF93DF93CDB7DEB70E94F40C00001C
:1018A000DF91CF910895CF93DF93CDB7DEB70E943C
:1018B000F40C0000DF91CF910895CF93DF9300D017
:1018C000CDB7DEB71A82198289819A810E94EA0116
:1018D00089819A810E94210289819A8161E070E068
:1018E0000E94480289819A8169EF0E9412048981CD
:1018F0009A8164E00E94B60289819A8160E470E076
:101900000E9422030E940F0C00000F900F90DF91A5
:10191000CF910895AF92BF92CF92DF92EF92FF9254
:101920000F931F93CF93DF93CDB7DEB728970FB6F2
:10193000F894DEBF0FBECDBF0E94180C8091140139
:101940008983809115018A83809116018B83809110
:1019500017018C83809118018D83809119018E83EA
:1019600080911A018F8380911B0188870E940F0C40
:1019700029813A814B815C816D817E818F8198853F
:10198000A22EB32EC42ED52EE62EF72E082F192FF9
:101990002A2D3B2D4C2D5D2D6E2D7F2D802F912FCF
:1019A00028960FB6F894DEBF0FBECDBFDF91CF9162
:1019B0001F910F91FF90EF90DF90CF90BF90AF906D
:1019C0000895CF93DF9300D0CDB7DEB79A83898394
:1019D00089819A8190931D0180931C0100000F90D2
:1019E0000F90DF91CF910895AF92BF92CF92DF9287
:1019F000EF92FF920F931F93CF93DF93CDB7DEB794
:101A0000A0901401B0901501C0901601D09017015C
:101A1000E0901801F090190100911A0110911B013A
:101A20002A2D3B2D4C2D5D2D6E2D7F2D802F912F3E
:101A3000A1E00E94AB12A22EB32EC42ED52EE62E0C
:101A4000F72E082F192FA0921401B0921501C09201
:101A50001601D0921701E0921801F092190100933B
:101A60001A0110931B0180911C0190911D01892B7B
:101A700031F080911C0190911D01FC01099500003D
:101A8000DF91CF911F910F91FF90EF90DF90CF905A
:101A9000BF90AF900895CF93DF93CDB7DEB7789422
:101AA0000000DF91CF910895CF93DF93CDB7DEB7DC
:101AB000F8940000DF91CF910895CF93DF931F92A8
:101AC000CDB7DEB780910E0190910F01FC018681A8
:101AD0008983898180931E0181E080931F0100002A
:101AE0000F90DF91CF910895CF93DF9300D0CDB7C2
:101AF000DEB780910E0190910F019A838983209126
:101B0000200189819A81FC01268380E090E00E9477
:101B10000B101092210100000F900F90DF91CF91D8
:101B20000895CF93DF93CDB7DEB70000DF91CF915B
:101B30000895CF93DF93CDB7DEB70000DF91CF914B
:101B40000895CF93DF9300D0CDB7DEB79A83898312
:101B500089819A81009719F0019759F014C084E6A1
:101B600090E024E630E0F90120812D7FFC01208304
:101B70000AC084E690E024E630E0F90120812F7E5F
:101B8000FC012083000000000F900F90DF91CF91A7
:101B90000895CF93DF9300D000D000D0CDB7DEB74B
:101BA0009C838B837E836D838B819C81880F991F9F
:101BB000825F9E4FFC01808191819A838983898114
:101BC0009A81FC018181282F2B7F89819A81FC01D8
:101BD000218389819A81FC018281282F217C89813E
:101BE0009A81FC0122838D819E81CC01A0E0B0E02E
:101BF00040E050E029E030E0841B950B28173907BE
:101C000008F4A4C08A5B9F4FFC010C94A212898146
:101C10009A81FC018281282F226089819A81FC01AE
:101C2000228397C089819A81FC018281282F2460B8
:101C300089819A81FC0122838CC089819A81FC016F
:101C40008281282F266089819A81FC01228381C0AC
:101C500089819A81FC018181282F246089819A8160
:101C6000FC01218389819A81FC018281282F2660D1
:101C700089819A81FC0122836CC089819A81FC014F
:101C80008281282F246089819A81FC0122838981A5
:101C90009A81FC018281282F206289819A81FC012E
:101CA000228357C089819A81FC018281282F266076
:101CB00089819A81FC01228389819A81FC01828138
:101CC000282F206289819A81FC01228342C0898168
:101CD0009A81FC018281282F246089819A81FC01EC
:101CE000228389819A81FC018281282F2063898146
:101CF0009A81FC0122832DC089819A81FC01828115
:101D0000282F266089819A81FC01228389819A810A
:101D1000FC018281282F206389819A81FC01228322
:101D200018C089819A81FC018281282F26608981CF
:101D30009A81FC01228389819A81FC018281282F6A
:101D4000286089819A81FC01228303C0000001C0C0
:101D50000000000026960FB6F894DEBF0FBECDBF80
:101D6000DF91CF910895CF93DF93CDB7DEB72B9757
:101D70000FB6F894DEBF0FBECDBF9F838E8348871A
:101D800059876A877B878E819F81880F991F825F21
:101D90009E4FFC01808191819C838B831A821982E2
:101DA0008B819C81FC018081882F90E08270992733
:101DB00021E0892B09F420E02D838B819C81FC019B
:101DC0008281882F90E0807C9927892BC1F08885BB
:101DD0009985AA85BB859C01AD01220F331F441F45
:101DE000551F80E094E2A4EFB0E0BC01CD010E9459
:101DF0008012DA01C90101979A83898346C08D81D7
:101E0000882301F188859985AA85BB85880F991F4C
:101E1000AA1FBB1F880F991FAA1FBB1F880F991FDE
:101E2000AA1FBB1F9C01AD0180E094E2A4EFB0E0CB
:101E3000BC01CD010E948012DA01C90101979A8389
:101E4000898323C088859985AA85BB85880F991FBA
:101E5000AA1FBB1F880F991FAA1FBB1F880F991F9E
:101E6000AA1FBB1F880F991FAA1FBB1F9C01AD0192
:101E700080E094E2A4EFB0E0BC01CD010E948012AA
:101E8000DA01C90101979A83898389819A81892F0F
:101E90009927282F8B819C81FC01258329818B81A7
:101EA0009C81FC01248300002B960FB6F894DEBFC2
:101EB0000FBECDBFDF91CF910895CF93DF9300D0B8
:101EC00000D000D0CDB7DEB79C838B837E836D833B
:101ED0008B819C81880F991F825F9E4FFC018081BE
:101EE00091819A83898389819A81FC018281282F3B
:101EF0002F7389819A81FC01228389819A81FC0157
:101F00008081282F2D7F89819A81FC0120838D81FA
:101F10009E818130910549F08130910538F1823000
:101F2000910571F00397B9F022C089819A81FC0173
:101F30008081282F226089819A81FC01208317C02B
:101F400089819A81FC018281282F206489819A816C
:101F5000FC0122830CC089819A81FC018281282F97
:101F6000206C89819A81FC01228301C0000000005D
:101F700026960FB6F894DEBF0FBECDBFDF91CF918E
:101F80000895CF93DF9300D000D0CDB7DEB79C8308
:101F90008B838B819C81880F991F825F9E4FFC01F0
:101FA000808191819A83898389819A81FC018181D1
:101FB000282F206E89819A81FC01218300000F90D7
:101FC0000F900F900F90DF91CF910895CF93DF93F3
:101FD00000D000D0CDB7DEB79C838B838B819C81F2
:101FE000880F991F825F9E4FFC01808191819A83A7
:101FF000898389819A81FC018181282F20628981CE
:102000009A81FC01218300000F900F900F900F9098
:10201000DF91CF910895CF93DF9300D000D0CDB75B
:10202000DEB79C838B838B819C81880F991F825F95
:102030009E4FFC01808191819A83898389819A8155
:10204000FC018181282F2F7D89819A81FC012183C8
:1020500000000F900F900F900F90DF91CF91089597
:10206000CF93DF9300D000D0CDB7DEB79C838B83B6
:102070008B819C81880F991F825F9E4FFC0180811C
:1020800091819A83898389819A81FC018181282F9A
:10209000286189819A81FC01218300000F900F90B3
:1020A0000F900F90DF91CF910895CF93DF9300D0E1
:1020B00000D01F92CDB7DEB79D838C838C819D812C
:1020C000880F991F825F9E4FFC01808191819A83C6
:1020D000898380911F01882311F480E00AC00E9447
:1020E000540D80911E018B8310921F010E944B0D95
:1020F0008B810F900F900F900F900F90DF91CF91E9
:102100000895CF93DF9300D01F92CDB7DEB79A83A7
:1021100089836B8301C00000809121018823D9F756
:102120000E94540D8B818093200181E080932101D6
:1021300089819A810E94E60F0E944B0D00000F904A
:102140000F900F90DF91CF910895CF93DF93CDB78C
:10215000DEB780911F01DF91CF910895CF93DF9378
:10216000CDB7DEB778940000DF91CF910895CF937B
:10217000DF93CDB7DEB7F8940000DF91CF910895DB
:10218000AF92BF92CF92DF92EF92FF920F931F9385
:10219000CF93DF93CDB7DEB760970FB6F894DEBF6D
:1021A0000FBECDBF42E062E070E082E20E943D04DB
:1021B00019821A821B821C821D821E821F8218862F
:1021C00019861A861B861C861D861E861F86188AFF
:1021D0000E948A0CA22EB32EC42ED52EE62EF72EE8
:1021E000082F192F2A2D3B2D4C2D5D2D6E2D7F2D67
:1021F000802F912FA980BA80CB80DC80ED80FE807B
:102200000F8118850E94B712A22EB32EC42ED52E90
:10221000E62EF72E082F192F2A2D3B2D4C2D5D2D44
:102220006E2D7F2D802F912F273E33404105510584
:10223000610571058105910559F250F262E082E273
:102240000E9477050E948A0CA22EB32EC42ED52E92
:10225000E62EF72E082F192FA982BA82CB82DC82B4
:10226000ED82FE820F83188729853A854B855C8530
:102270006D857E858F859889A1E00E94AB12A22E84
:10228000B32EC42ED52EE62EF72E082F192FA98691
:10229000BA86CB86DC86ED86FE860F87188B98CFB4
:1022A000AF92BF92CF92DF92EF92FF920F931F9364
:1022B000CF93DF93CDB7DEB72A970FB6F894DEBF82
:1022C0000FBECDBF9A8789870E948A0CA22EB32E9B
:1022D000C42ED52EE62EF72E082F192FA982BA82EA
:1022E000CB82DC82ED82FE820F83188700002A9663
:1022F0000FB6F894DEBF0FBECDBFDF91CF911F9117
:102300000F91FF90EF90DF90CF90BF90AF90089526
:10231000AF92BF92CF92DF92EF92FF920F931F93F3
:10232000CF93DF93CDB7DEB72A970FB6F894DEBF11
:102330000FBECDBF9A8789870E948A0CA22EB32E2A
:10234000C42ED52EE62EF72E082F192FA982BA8279
:10235000CB82DC82ED82FE820F83188700002A96F2
:102360000FB6F894DEBF0FBECDBFDF91CF911F91A6
:102370000F91FF90EF90DF90CF90BF90AF900895B6
:10238000AF92BF92CF92DF92EF92FF920F931F9383
:10239000CF93DF93CDB7DEB72A970FB6F894DEBFA1
:1023A0000FBECDBF9A8789870E948A0CA22EB32EBA
:1023B000C42ED52EE62EF72E082F192FA982BA8209
:1023C000CB82DC82ED82FE820F83188700002A9682
:1023D0000FB6F894DEBF0FBECDBFDF91CF911F9136
:1023E0000F91FF90EF90DF90CF90BF90AF90089546
:1023F000EF92FF920F931F93CF93DF93CDB7DEB78A
:102400000E94E800E12CF12C00E511E121E030E030
:1024100048EB5BE060E070E00E947F000E94E80013
:10242000E12CF12C08E811E121E030E040ED57E02B
:1024300060E070E00E947F000E94E800E12CF12C37
:1024400000EC11E121E030E048EE53E060E070E0A4
:102450000E947F000000DF91CF911F910F91FF90AC
:10246000EF900895CF93DF9300D000D0CDB7DEB7C3
:102470001A8219820E94B71089819A810E94A10D47
:1024800089819A8163E070E00E94C90D89819A81F7
:1024900040E052EC61E070E00E94B30E89819A81C5
:1024A00060E070E00E945D0F89819A810E94C10FF7
:1024B00089819A810E9430100E94AE100E94A5105E
:1024C000882369F089819A810E9455108B838B81C2
:1024D0008B5F8C8389819A816C810E9481100000BE
:1024E0000F900F900F900F90DF91CF910895CF93A1
:1024F000DF93CDB7DEB70E945D0C0E943212FDCF94
:10250000A1E21A2EAA1BBB1BFD010DC0AA1FBB1FF7
:10251000EE1FFF1FA217B307E407F50720F0A21B69
:10252000B30BE40BF50B661F771F881F991F1A94D6
:1025300069F760957095809590959B01AC01BD0100
:10254000CF010895EE0FFF1F0024001C0BBE079063
:10255000F691E02D09940024A7FD00942A0F301D68
:10256000401D501D601D701D801D901D08952A196D
:102570003B094C095D096E097F09800B910B089599
:04258000F894FFCFFD
:1025840044456E46474805B0B170B2B3B406C000C6
:02259400C8007D
:00000001FF
