:100000000C9446000C9499020C94AC020C94BF0220
:100010000C94D2020C94E5020C94F8020C940B039D
:100020000C941E030C9431030C9444030C9457035A
:100030000C946A030C947D030C9490030C94A3031A
:100040000C94B6030C94C9030C94DC030C940F04B9
:100050000C9422040C9435040C9448040C945B0416
:100060000C946E040C9481040C9494040C94A704D6
:100070000C94BA040C94CD040C94E0040C94580035
:100080000C9458000C9458000C94580011241FBE76
:10009000CFEFD0E4DEBFCDBF21E0A0E0B1E001C0F2
:1000A0001D92A031B207E1F70E94FC000C94F1050B
:1000B0000C940000AF92BF92CF92DF92EF92FF922A
:1000C0000F931F93CF93DF93CDB7DEB728970FB66B
:1000D000F894DEBF0FBECDBF0E94FA0442E062E09A
:1000E00070E082E20E94190119821A821B821C822E
:1000F0001D821E821F8218860E943A05A22EB32EF0
:10010000C42ED52EE62EF72E082F192F2A2D3B2D83
:100110004C2D5D2D6E2D7F2D802F912FA980BA80C3
:10012000CB80DC80ED80FE800F8118850E94E80581
:10013000A22EB32EC42ED52EE62EF72E082F192F61
:100140002A2D3B2D4C2D5D2D6E2D7F2D802F912F37
:10015000273E334041055105610571058105910533
:1001600059F250F262E082E20E9453020E943A0584
:10017000A22EB32EC42ED52EE62EF72E082F192F21
:10018000A982BA82CB82DC82ED82FE820F8318873D
:10019000A0900001B0900101C0900201D090030135
:1001A000E0900401F0900501009106011091070113
:1001B0002A2D3B2D4C2D5D2D6E2D7F2D802F912FC7
:1001C000A1E00E94DC05A22EB32EC42ED52EE62E71
:1001D000F72E082F192FA0920001B0920101C092B2
:1001E0000201D0920301E0920401F0920501009314
:1001F00006011093070180CFCF93DF93CDB7DEB711
:100200000E945A0080E090E0DF91CF910895CF9353
:10021000DF9300D000D0CDB7DEB789837B836A83BC
:100220004C8300000F900F900F900F90DF91CF91B3
:100230000895CF93DF93CDB7DEB728970FB6F89424
:10024000DEBF0FBECDBF8D837F836E8348878D81D8
:10025000882F90E09A8389838D81882F90E0019682
:100260009C838B838E819F8181309105C1F1813088
:10027000910540F08230910509F45EC0039709F4BE
:1002800071C09CC089819A81FC018081482F88853A
:10029000282F30E081E090E002C0880F991F2A9556
:1002A000E2F780958423282F89819A81FC0120839D
:1002B0008B819C81FC018081482F8885282F30E02C
:1002C00081E090E002C0880F991F2A95E2F780959F
:1002D0008423282F8B819C81FC0120836FC089811E
:1002E0009A81FC018081482F8885282F30E081E0A9
:1002F00090E002C0880F991F2A95E2F78095842329
:10030000282F89819A81FC0120838B819C81FC01AB
:100310008081482F8885282F30E081E090E002C05E
:10032000880F991F2A95E2F780958423282F8B81C7
:100330009C81FC01208342C089819A81FC018081DB
:10034000482F8885282F30E081E090E002C0880F98
:10035000991F2A95E2F7842B282F89819A81FC0125
:1003600020832CC089819A81FC018081482F888557
:10037000282F30E081E090E002C0880F991F2A9575
:10038000E2F780958423282F89819A81FC012083BC
:100390008B819C81FC018081482F8885282F30E04B
:1003A00081E090E002C0880F991F2A95E2F7842B24
:1003B000282F8B819C81FC0120830000000028965F
:1003C0000FB6F894DEBF0FBECDBFDF91CF91089579
:1003D000CF93DF9300D0CDB7DEB789836A8389815D
:1003E000882F90E09C018981882F90E0FC0180811A
:1003F000682F8A81482F50E081E090E002C0880F8A
:10040000991F4A95E2F7862BF901808300000F902F
:100410000F90DF91CF910895CF93DF9300D0CDB7A8
:10042000DEB789836A838981882F90E09C01898166
:10043000882F90E0FC018081682F8A81482F50E04E
:1004400081E090E002C0880F991F4A95E2F78095FD
:100450008623F901808300000F900F90DF91CF91E8
:100460000895CF93DF9300D0CDB7DEB789836A8339
:100470008981882F90E0FC018081882F90E02A817B
:10048000222F30E002C0959587952A95E2F781707A
:10049000992721E0892B09F420E0822F0F900F90FB
:1004A000DF91CF910895CF93DF9300D0CDB7DEB722
:1004B00089836A838981882F90E09C018981882FB4
:1004C00090E0FC018081682F8A81482F50E081E014
:1004D00090E002C0880F991F4A95E2F78627F9013C
:1004E000808300000F900F90DF91CF910895CF93FC
:1004F000DF931F92CDB7DEB789838981882F90E083
:10050000FC0180810F90DF91CF910895CF93DF930D
:1005100000D0CDB7DEB789836A838981882F90E0C8
:100520002A81FC01208300000F900F90DF91CF9172
:1005300008951F920F9200905F000F921124CF93A5
:10054000DF93CDB7DEB70000DF91CF910F9000921F
:100550005F000F901F9018951F920F9200905F0000
:100560000F921124CF93DF93CDB7DEB70000DF9158
:10057000CF910F9000925F000F901F9018951F92DF
:100580000F9200905F000F921124CF93DF93CDB7AD
:10059000DEB70000DF91CF910F9000925F000F90C7
:1005A0001F9018951F920F9200905F000F921124D8
:1005B000CF93DF93CDB7DEB70000DF91CF910F90DF
:1005C00000925F000F901F9018951F920F9200905D
:1005D0005F000F921124CF93DF93CDB7DEB70000F9
:1005E000DF91CF910F9000925F000F901F901895B0
:1005F0001F920F9200905F000F921124CF93DF9310
:10060000CDB7DEB70000DF91CF910F9000925F0071
:100610000F901F9018951F920F9200905F000F92FD
:100620001124CF93DF93CDB7DEB70000DF91CF91D8
:100630000F9000925F000F901F9018951F920F92DD
:1006400000905F000F921124CF93DF93CDB7DEB7F8
:100650000000DF91CF910F9000925F000F901F90EC
:1006600018951F920F9200905F000F921124CF9364
:10067000DF93CDB7DEB70000DF91CF910F900092EE
:100680005F000F901F9018951F920F9200905F00CF
:100690000F921124CF93DF93CDB7DEB70000DF9127
:1006A000CF910F9000925F000F901F9018951F92AE
:1006B0000F9200905F000F921124CF93DF93CDB77C
:1006C000DEB70000DF91CF910F9000925F000F9096
:1006D0001F9018951F920F9200905F000F921124A7
:1006E000CF93DF93CDB7DEB70000DF91CF910F90AE
:1006F00000925F000F901F9018951F920F9200902C
:100700005F000F921124CF93DF93CDB7DEB70000C7
:10071000DF91CF910F9000925F000F901F9018957E
:100720001F920F9200905F000F921124CF93DF93DE
:10073000CDB7DEB70000DF91CF910F9000925F0040
:100740000F901F9018951F920F9200905F000F92CC
:100750001124CF93DF93CDB7DEB70000DF91CF91A7
:100760000F9000925F000F901F9018951F920F92AC
:1007700000905F000F921124CF93DF93CDB7DEB7C7
:100780000000DF91CF910F9000925F000F901F90BB
:1007900018951F920F9200905F000F921124CF9333
:1007A000DF93CDB7DEB70000DF91CF910F900092BD
:1007B0005F000F901F9018951F920F9200905F009E
:1007C0000F92112400905B000F922F933F934F9351
:1007D0005F936F937F938F939F93AF93BF93EF93A9
:1007E000FF93CF93DF93CDB7DEB70E949105000052
:1007F000DF91CF91FF91EF91BF91AF919F918F9139
:100800007F916F915F914F913F912F910F90009247
:100810005B000F9000925F000F901F9018951F9241
:100820000F9200905F000F921124CF93DF93CDB70A
:10083000DEB70000DF91CF910F9000925F000F9024
:100840001F9018951F920F9200905F000F92112435
:10085000CF93DF93CDB7DEB70000DF91CF910F903C
:1008600000925F000F901F9018951F920F920090BA
:100870005F000F921124CF93DF93CDB7DEB7000056
:10088000DF91CF910F9000925F000F901F9018950D
:100890001F920F9200905F000F921124CF93DF936D
:1008A000CDB7DEB70000DF91CF910F9000925F00CF
:1008B0000F901F9018951F920F9200905F000F925B
:1008C0001124CF93DF93CDB7DEB70000DF91CF9136
:1008D0000F9000925F000F901F9018951F920F923B
:1008E00000905F000F921124CF93DF93CDB7DEB756
:1008F0000000DF91CF910F9000925F000F901F904A
:1009000018951F920F9200905F000F921124CF93C1
:10091000DF93CDB7DEB70000DF91CF910F9000924B
:100920005F000F901F9018951F920F9200905F002C
:100930000F921124CF93DF93CDB7DEB70000DF9184
:10094000CF910F9000925F000F901F9018951F920B
:100950000F9200905F000F921124CF93DF93CDB7D9
:10096000DEB70000DF91CF910F9000925F000F90F3
:100970001F9018951F920F9200905F000F92112404
:10098000CF93DF93CDB7DEB70000DF91CF910F900B
:1009900000925F000F901F9018951F920F92009089
:1009A0005F000F921124CF93DF93CDB7DEB7000025
:1009B000DF91CF910F9000925F000F901F901895DC
:1009C000CF93DF93CDB7DEB70000DF91CF910895CD
:1009D000CF93DF93CDB7DEB778940000DF91CF914E
:1009E0000895CF93DF93CDB7DEB7F8940000DF9181
:1009F000CF910895CF93DF93CDB7DEB784E690E033
:100A000024E630E0F90120812F7BFC01208384E47F
:100A100090E024E430E0F90120812C7FFC01208368
:100A200085E490E025E430E0F9012081277FFC0196
:100A3000208385E490E025E430E0F9012081287FDF
:100A4000FC01208385E490E025E430E0F901208179
:100A50002360FC0120838EE690E02EE630E0F90171
:100A600020812160FC0120830E94E8040000DF91C6
:100A7000CF910895AF92BF92CF92DF92EF92FF9203
:100A80000F931F93CF93DF93CDB7DEB728970FB6A1
:100A9000F894DEBF0FBECDBF0E94F1048091080123
:100AA0008983809109018A8380910A018B838091D7
:100AB0000B018C8380910C018D8380910D018E83BD
:100AC00080910E018F8380910F0188870E94E80436
:100AD00029813A814B815C816D817E818F819885EE
:100AE000A22EB32EC42ED52EE62EF72E082F192FA8
:100AF0002A2D3B2D4C2D5D2D6E2D7F2D802F912F7E
:100B000028960FB6F894DEBF0FBECDBFDF91CF9110
:100B10001F910F91FF90EF90DF90CF90BF90AF901B
:100B20000895AF92BF92CF92DF92EF92FF920F9310
:100B30001F93CF93DF93CDB7DEB7A0900801B0909D
:100B40000901C0900A01D0900B01E0900C01F090D7
:100B50000D0100910E0110910F012A2D3B2D4C2DFE
:100B60005D2D6E2D7F2D802F912FA1E00E94DC0541
:100B7000A22EB32EC42ED52EE62EF72E082F192F17
:100B8000A0920801B0920901C0920A01D0920B0113
:100B9000E0920C01F0920D0100930E0110930F01F1
:100BA0000000DF91CF911F910F91FF90EF90DF90A8
:100BB000CF90BF90AF9008950024A7FD00942A0F16
:100BC000301D401D501D601D701D801D901D08951D
:100BD0002A193B094C095D096E097F09800B910BAD
:060BE0000895F894FFCF18
:00000001FF
